{
  "_format": "hh-sol-artifact-1",
  "contractName": "FLGovernor",
  "sourceName": "contracts/FLGov.sol",
  "abi": [
    {
      "inputs": [
        {
          "internalType": "contract IVotes",
          "name": "_token",
          "type": "address"
        }
      ],
      "stateMutability": "nonpayable",
      "type": "constructor"
    },
    {
      "inputs": [],
      "name": "CheckpointUnorderedInsertion",
      "type": "error"
    },
    {
      "inputs": [],
      "name": "FailedCall",
      "type": "error"
    },
    {
      "inputs": [
        {
          "internalType": "address",
          "name": "voter",
          "type": "address"
        }
      ],
      "name": "GovernorAlreadyCastVote",
      "type": "error"
    },
    {
      "inputs": [
        {
          "internalType": "uint256",
          "name": "proposalId",
          "type": "uint256"
        }
      ],
      "name": "GovernorAlreadyQueuedProposal",
      "type": "error"
    },
    {
      "inputs": [],
      "name": "GovernorDisabledDeposit",
      "type": "error"
    },
    {
      "inputs": [
        {
          "internalType": "address",
          "name": "proposer",
          "type": "address"
        },
        {
          "internalType": "uint256",
          "name": "votes",
          "type": "uint256"
        },
        {
          "internalType": "uint256",
          "name": "threshold",
          "type": "uint256"
        }
      ],
      "name": "GovernorInsufficientProposerVotes",
      "type": "error"
    },
    {
      "inputs": [
        {
          "internalType": "uint256",
          "name": "targets",
          "type": "uint256"
        },
        {
          "internalType": "uint256",
          "name": "calldatas",
          "type": "uint256"
        },
        {
          "internalType": "uint256",
          "name": "values",
          "type": "uint256"
        }
      ],
      "name": "GovernorInvalidProposalLength",
      "type": "error"
    },
    {
      "inputs": [
        {
          "internalType": "uint256",
          "name": "quorumNumerator",
          "type": "uint256"
        },
        {
          "internalType": "uint256",
          "name": "quorumDenominator",
          "type": "uint256"
        }
      ],
      "name": "GovernorInvalidQuorumFraction",
      "type": "error"
    },
    {
      "inputs": [
        {
          "internalType": "address",
          "name": "voter",
          "type": "address"
        }
      ],
      "name": "GovernorInvalidSignature",
      "type": "error"
    },
    {
      "inputs": [],
      "name": "GovernorInvalidVoteParams",
      "type": "error"
    },
    {
      "inputs": [],
      "name": "GovernorInvalidVoteType",
      "type": "error"
    },
    {
      "inputs": [
        {
          "internalType": "uint256",
          "name": "votingPeriod",
          "type": "uint256"
        }
      ],
      "name": "GovernorInvalidVotingPeriod",
      "type": "error"
    },
    {
      "inputs": [
        {
          "internalType": "uint256",
          "name": "proposalId",
          "type": "uint256"
        }
      ],
      "name": "GovernorNonexistentProposal",
      "type": "error"
    },
    {
      "inputs": [
        {
          "internalType": "uint256",
          "name": "proposalId",
          "type": "uint256"
        }
      ],
      "name": "GovernorNotQueuedProposal",
      "type": "error"
    },
    {
      "inputs": [
        {
          "internalType": "address",
          "name": "account",
          "type": "address"
        }
      ],
      "name": "GovernorOnlyExecutor",
      "type": "error"
    },
    {
      "inputs": [
        {
          "internalType": "address",
          "name": "account",
          "type": "address"
        }
      ],
      "name": "GovernorOnlyProposer",
      "type": "error"
    },
    {
      "inputs": [],
      "name": "GovernorQueueNotImplemented",
      "type": "error"
    },
    {
      "inputs": [
        {
          "internalType": "address",
          "name": "proposer",
          "type": "address"
        }
      ],
      "name": "GovernorRestrictedProposer",
      "type": "error"
    },
    {
      "inputs": [
        {
          "internalType": "uint256",
          "name": "proposalId",
          "type": "uint256"
        },
        {
          "internalType": "enum IGovernor.ProposalState",
          "name": "current",
          "type": "uint8"
        },
        {
          "internalType": "bytes32",
          "name": "expectedStates",
          "type": "bytes32"
        }
      ],
      "name": "GovernorUnexpectedProposalState",
      "type": "error"
    },
    {
      "inputs": [
        {
          "internalType": "address",
          "name": "account",
          "type": "address"
        },
        {
          "internalType": "uint256",
          "name": "currentNonce",
          "type": "uint256"
        }
      ],
      "name": "InvalidAccountNonce",
      "type": "error"
    },
    {
      "inputs": [],
      "name": "InvalidShortString",
      "type": "error"
    },
    {
      "inputs": [
        {
          "internalType": "uint8",
          "name": "bits",
          "type": "uint8"
        },
        {
          "internalType": "uint256",
          "name": "value",
          "type": "uint256"
        }
      ],
      "name": "SafeCastOverflowedUintDowncast",
      "type": "error"
    },
    {
      "inputs": [
        {
          "internalType": "string",
          "name": "str",
          "type": "string"
        }
      ],
      "name": "StringTooLong",
      "type": "error"
    },
    {
      "anonymous": false,
      "inputs": [],
      "name": "EIP712DomainChanged",
      "type": "event"
    },
    {
      "anonymous": false,
      "inputs": [
        {
          "indexed": false,
          "internalType": "uint256",
          "name": "proposalId",
          "type": "uint256"
        }
      ],
      "name": "ProposalCanceled",
      "type": "event"
    },
    {
      "anonymous": false,
      "inputs": [
        {
          "indexed": false,
          "internalType": "uint256",
          "name": "proposalId",
          "type": "uint256"
        },
        {
          "indexed": false,
          "internalType": "address",
          "name": "proposer",
          "type": "address"
        },
        {
          "indexed": false,
          "internalType": "address[]",
          "name": "targets",
          "type": "address[]"
        },
        {
          "indexed": false,
          "internalType": "uint256[]",
          "name": "values",
          "type": "uint256[]"
        },
        {
          "indexed": false,
          "internalType": "string[]",
          "name": "signatures",
          "type": "string[]"
        },
        {
          "indexed": false,
          "internalType": "bytes[]",
          "name": "calldatas",
          "type": "bytes[]"
        },
        {
          "indexed": false,
          "internalType": "uint256",
          "name": "voteStart",
          "type": "uint256"
        },
        {
          "indexed": false,
          "internalType": "uint256",
          "name": "voteEnd",
          "type": "uint256"
        },
        {
          "indexed": false,
          "internalType": "string",
          "name": "description",
          "type": "string"
        }
      ],
      "name": "ProposalCreated",
      "type": "event"
    },
    {
      "anonymous": false,
      "inputs": [
        {
          "indexed": false,
          "internalType": "uint256",
          "name": "proposalId",
          "type": "uint256"
        }
      ],
      "name": "ProposalExecuted",
      "type": "event"
    },
    {
      "anonymous": false,
      "inputs": [
        {
          "indexed": false,
          "internalType": "uint256",
          "name": "proposalId",
          "type": "uint256"
        },
        {
          "indexed": false,
          "internalType": "uint256",
          "name": "etaSeconds",
          "type": "uint256"
        }
      ],
      "name": "ProposalQueued",
      "type": "event"
    },
    {
      "anonymous": false,
      "inputs": [
        {
          "indexed": false,
          "internalType": "uint256",
          "name": "oldProposalThreshold",
          "type": "uint256"
        },
        {
          "indexed": false,
          "internalType": "uint256",
          "name": "newProposalThreshold",
          "type": "uint256"
        }
      ],
      "name": "ProposalThresholdSet",
      "type": "event"
    },
    {
      "anonymous": false,
      "inputs": [
        {
          "indexed": false,
          "internalType": "uint256",
          "name": "oldQuorumNumerator",
          "type": "uint256"
        },
        {
          "indexed": false,
          "internalType": "uint256",
          "name": "newQuorumNumerator",
          "type": "uint256"
        }
      ],
      "name": "QuorumNumeratorUpdated",
      "type": "event"
    },
    {
      "anonymous": false,
      "inputs": [
        {
          "indexed": true,
          "internalType": "address",
          "name": "voter",
          "type": "address"
        },
        {
          "indexed": false,
          "internalType": "uint256",
          "name": "proposalId",
          "type": "uint256"
        },
        {
          "indexed": false,
          "internalType": "uint8",
          "name": "support",
          "type": "uint8"
        },
        {
          "indexed": false,
          "internalType": "uint256",
          "name": "weight",
          "type": "uint256"
        },
        {
          "indexed": false,
          "internalType": "string",
          "name": "reason",
          "type": "string"
        }
      ],
      "name": "VoteCast",
      "type": "event"
    },
    {
      "anonymous": false,
      "inputs": [
        {
          "indexed": true,
          "internalType": "address",
          "name": "voter",
          "type": "address"
        },
        {
          "indexed": false,
          "internalType": "uint256",
          "name": "proposalId",
          "type": "uint256"
        },
        {
          "indexed": false,
          "internalType": "uint8",
          "name": "support",
          "type": "uint8"
        },
        {
          "indexed": false,
          "internalType": "uint256",
          "name": "weight",
          "type": "uint256"
        },
        {
          "indexed": false,
          "internalType": "string",
          "name": "reason",
          "type": "string"
        },
        {
          "indexed": false,
          "internalType": "bytes",
          "name": "params",
          "type": "bytes"
        }
      ],
      "name": "VoteCastWithParams",
      "type": "event"
    },
    {
      "anonymous": false,
      "inputs": [
        {
          "indexed": false,
          "internalType": "uint256",
          "name": "oldVotingDelay",
          "type": "uint256"
        },
        {
          "indexed": false,
          "internalType": "uint256",
          "name": "newVotingDelay",
          "type": "uint256"
        }
      ],
      "name": "VotingDelaySet",
      "type": "event"
    },
    {
      "anonymous": false,
      "inputs": [
        {
          "indexed": false,
          "internalType": "uint256",
          "name": "oldVotingPeriod",
          "type": "uint256"
        },
        {
          "indexed": false,
          "internalType": "uint256",
          "name": "newVotingPeriod",
          "type": "uint256"
        }
      ],
      "name": "VotingPeriodSet",
      "type": "event"
    },
    {
      "inputs": [],
      "name": "BALLOT_TYPEHASH",
      "outputs": [
        {
          "internalType": "bytes32",
          "name": "",
          "type": "bytes32"
        }
      ],
      "stateMutability": "view",
      "type": "function"
    },
    {
      "inputs": [],
      "name": "CLOCK_MODE",
      "outputs": [
        {
          "internalType": "string",
          "name": "",
          "type": "string"
        }
      ],
      "stateMutability": "view",
      "type": "function"
    },
    {
      "inputs": [],
      "name": "COUNTING_MODE",
      "outputs": [
        {
          "internalType": "string",
          "name": "",
          "type": "string"
        }
      ],
      "stateMutability": "pure",
      "type": "function"
    },
    {
      "inputs": [],
      "name": "EXTENDED_BALLOT_TYPEHASH",
      "outputs": [
        {
          "internalType": "bytes32",
          "name": "",
          "type": "bytes32"
        }
      ],
      "stateMutability": "view",
      "type": "function"
    },
    {
      "inputs": [
        {
          "internalType": "address[]",
          "name": "targets",
          "type": "address[]"
        },
        {
          "internalType": "uint256[]",
          "name": "values",
          "type": "uint256[]"
        },
        {
          "internalType": "bytes[]",
          "name": "calldatas",
          "type": "bytes[]"
        },
        {
          "internalType": "bytes32",
          "name": "descriptionHash",
          "type": "bytes32"
        }
      ],
      "name": "cancel",
      "outputs": [
        {
          "internalType": "uint256",
          "name": "",
          "type": "uint256"
        }
      ],
      "stateMutability": "nonpayable",
      "type": "function"
    },
    {
      "inputs": [
        {
          "internalType": "uint256",
          "name": "proposalId",
          "type": "uint256"
        },
        {
          "internalType": "uint8",
          "name": "support",
          "type": "uint8"
        }
      ],
      "name": "castVote",
      "outputs": [
        {
          "internalType": "uint256",
          "name": "",
          "type": "uint256"
        }
      ],
      "stateMutability": "nonpayable",
      "type": "function"
    },
    {
      "inputs": [
        {
          "internalType": "uint256",
          "name": "proposalId",
          "type": "uint256"
        },
        {
          "internalType": "uint8",
          "name": "support",
          "type": "uint8"
        },
        {
          "internalType": "address",
          "name": "voter",
          "type": "address"
        },
        {
          "internalType": "bytes",
          "name": "signature",
          "type": "bytes"
        }
      ],
      "name": "castVoteBySig",
      "outputs": [
        {
          "internalType": "uint256",
          "name": "",
          "type": "uint256"
        }
      ],
      "stateMutability": "nonpayable",
      "type": "function"
    },
    {
      "inputs": [
        {
          "internalType": "uint256",
          "name": "proposalId",
          "type": "uint256"
        },
        {
          "internalType": "uint8",
          "name": "support",
          "type": "uint8"
        },
        {
          "internalType": "string",
          "name": "reason",
          "type": "string"
        }
      ],
      "name": "castVoteWithReason",
      "outputs": [
        {
          "internalType": "uint256",
          "name": "",
          "type": "uint256"
        }
      ],
      "stateMutability": "nonpayable",
      "type": "function"
    },
    {
      "inputs": [
        {
          "internalType": "uint256",
          "name": "proposalId",
          "type": "uint256"
        },
        {
          "internalType": "uint8",
          "name": "support",
          "type": "uint8"
        },
        {
          "internalType": "string",
          "name": "reason",
          "type": "string"
        },
        {
          "internalType": "bytes",
          "name": "params",
          "type": "bytes"
        }
      ],
      "name": "castVoteWithReasonAndParams",
      "outputs": [
        {
          "internalType": "uint256",
          "name": "",
          "type": "uint256"
        }
      ],
      "stateMutability": "nonpayable",
      "type": "function"
    },
    {
      "inputs": [
        {
          "internalType": "uint256",
          "name": "proposalId",
          "type": "uint256"
        },
        {
          "internalType": "uint8",
          "name": "support",
          "type": "uint8"
        },
        {
          "internalType": "address",
          "name": "voter",
          "type": "address"
        },
        {
          "internalType": "string",
          "name": "reason",
          "type": "string"
        },
        {
          "internalType": "bytes",
          "name": "params",
          "type": "bytes"
        },
        {
          "internalType": "bytes",
          "name": "signature",
          "type": "bytes"
        }
      ],
      "name": "castVoteWithReasonAndParamsBySig",
      "outputs": [
        {
          "internalType": "uint256",
          "name": "",
          "type": "uint256"
        }
      ],
      "stateMutability": "nonpayable",
      "type": "function"
    },
    {
      "inputs": [],
      "name": "clock",
      "outputs": [
        {
          "internalType": "uint48",
          "name": "",
          "type": "uint48"
        }
      ],
      "stateMutability": "view",
      "type": "function"
    },
    {
      "inputs": [],
      "name": "eip712Domain",
      "outputs": [
        {
          "internalType": "bytes1",
          "name": "fields",
          "type": "bytes1"
        },
        {
          "internalType": "string",
          "name": "name",
          "type": "string"
        },
        {
          "internalType": "string",
          "name": "version",
          "type": "string"
        },
        {
          "internalType": "uint256",
          "name": "chainId",
          "type": "uint256"
        },
        {
          "internalType": "address",
          "name": "verifyingContract",
          "type": "address"
        },
        {
          "internalType": "bytes32",
          "name": "salt",
          "type": "bytes32"
        },
        {
          "internalType": "uint256[]",
          "name": "extensions",
          "type": "uint256[]"
        }
      ],
      "stateMutability": "view",
      "type": "function"
    },
    {
      "inputs": [
        {
          "internalType": "address[]",
          "name": "targets",
          "type": "address[]"
        },
        {
          "internalType": "uint256[]",
          "name": "values",
          "type": "uint256[]"
        },
        {
          "internalType": "bytes[]",
          "name": "calldatas",
          "type": "bytes[]"
        },
        {
          "internalType": "bytes32",
          "name": "descriptionHash",
          "type": "bytes32"
        }
      ],
      "name": "execute",
      "outputs": [
        {
          "internalType": "uint256",
          "name": "",
          "type": "uint256"
        }
      ],
      "stateMutability": "payable",
      "type": "function"
    },
    {
      "inputs": [
        {
          "internalType": "address",
          "name": "account",
          "type": "address"
        },
        {
          "internalType": "uint256",
          "name": "timepoint",
          "type": "uint256"
        }
      ],
      "name": "getVotes",
      "outputs": [
        {
          "internalType": "uint256",
          "name": "",
          "type": "uint256"
        }
      ],
      "stateMutability": "view",
      "type": "function"
    },
    {
      "inputs": [
        {
          "internalType": "address",
          "name": "account",
          "type": "address"
        },
        {
          "internalType": "uint256",
          "name": "timepoint",
          "type": "uint256"
        },
        {
          "internalType": "bytes",
          "name": "params",
          "type": "bytes"
        }
      ],
      "name": "getVotesWithParams",
      "outputs": [
        {
          "internalType": "uint256",
          "name": "",
          "type": "uint256"
        }
      ],
      "stateMutability": "view",
      "type": "function"
    },
    {
      "inputs": [
        {
          "internalType": "uint256",
          "name": "proposalId",
          "type": "uint256"
        },
        {
          "internalType": "address",
          "name": "account",
          "type": "address"
        }
      ],
      "name": "hasVoted",
      "outputs": [
        {
          "internalType": "bool",
          "name": "",
          "type": "bool"
        }
      ],
      "stateMutability": "view",
      "type": "function"
    },
    {
      "inputs": [
        {
          "internalType": "address[]",
          "name": "targets",
          "type": "address[]"
        },
        {
          "internalType": "uint256[]",
          "name": "values",
          "type": "uint256[]"
        },
        {
          "internalType": "bytes[]",
          "name": "calldatas",
          "type": "bytes[]"
        },
        {
          "internalType": "bytes32",
          "name": "descriptionHash",
          "type": "bytes32"
        }
      ],
      "name": "hashProposal",
      "outputs": [
        {
          "internalType": "uint256",
          "name": "",
          "type": "uint256"
        }
      ],
      "stateMutability": "pure",
      "type": "function"
    },
    {
      "inputs": [],
      "name": "name",
      "outputs": [
        {
          "internalType": "string",
          "name": "",
          "type": "string"
        }
      ],
      "stateMutability": "view",
      "type": "function"
    },
    {
      "inputs": [
        {
          "internalType": "address",
          "name": "owner",
          "type": "address"
        }
      ],
      "name": "nonces",
      "outputs": [
        {
          "internalType": "uint256",
          "name": "",
          "type": "uint256"
        }
      ],
      "stateMutability": "view",
      "type": "function"
    },
    {
      "inputs": [
        {
          "internalType": "address",
          "name": "",
          "type": "address"
        },
        {
          "internalType": "address",
          "name": "",
          "type": "address"
        },
        {
          "internalType": "uint256[]",
          "name": "",
          "type": "uint256[]"
        },
        {
          "internalType": "uint256[]",
          "name": "",
          "type": "uint256[]"
        },
        {
          "internalType": "bytes",
          "name": "",
          "type": "bytes"
        }
      ],
      "name": "onERC1155BatchReceived",
      "outputs": [
        {
          "internalType": "bytes4",
          "name": "",
          "type": "bytes4"
        }
      ],
      "stateMutability": "nonpayable",
      "type": "function"
    },
    {
      "inputs": [
        {
          "internalType": "address",
          "name": "",
          "type": "address"
        },
        {
          "internalType": "address",
          "name": "",
          "type": "address"
        },
        {
          "internalType": "uint256",
          "name": "",
          "type": "uint256"
        },
        {
          "internalType": "uint256",
          "name": "",
          "type": "uint256"
        },
        {
          "internalType": "bytes",
          "name": "",
          "type": "bytes"
        }
      ],
      "name": "onERC1155Received",
      "outputs": [
        {
          "internalType": "bytes4",
          "name": "",
          "type": "bytes4"
        }
      ],
      "stateMutability": "nonpayable",
      "type": "function"
    },
    {
      "inputs": [
        {
          "internalType": "address",
          "name": "",
          "type": "address"
        },
        {
          "internalType": "address",
          "name": "",
          "type": "address"
        },
        {
          "internalType": "uint256",
          "name": "",
          "type": "uint256"
        },
        {
          "internalType": "bytes",
          "name": "",
          "type": "bytes"
        }
      ],
      "name": "onERC721Received",
      "outputs": [
        {
          "internalType": "bytes4",
          "name": "",
          "type": "bytes4"
        }
      ],
      "stateMutability": "nonpayable",
      "type": "function"
    },
    {
      "inputs": [
        {
          "internalType": "uint256",
          "name": "proposalId",
          "type": "uint256"
        }
      ],
      "name": "proposalDeadline",
      "outputs": [
        {
          "internalType": "uint256",
          "name": "",
          "type": "uint256"
        }
      ],
      "stateMutability": "view",
      "type": "function"
    },
    {
      "inputs": [
        {
          "internalType": "uint256",
          "name": "proposalId",
          "type": "uint256"
        }
      ],
      "name": "proposalEta",
      "outputs": [
        {
          "internalType": "uint256",
          "name": "",
          "type": "uint256"
        }
      ],
      "stateMutability": "view",
      "type": "function"
    },
    {
      "inputs": [
        {
          "internalType": "uint256",
          "name": "",
          "type": "uint256"
        }
      ],
      "name": "proposalNeedsQueuing",
      "outputs": [
        {
          "internalType": "bool",
          "name": "",
          "type": "bool"
        }
      ],
      "stateMutability": "view",
      "type": "function"
    },
    {
      "inputs": [
        {
          "internalType": "uint256",
          "name": "proposalId",
          "type": "uint256"
        }
      ],
      "name": "proposalProposer",
      "outputs": [
        {
          "internalType": "address",
          "name": "",
          "type": "address"
        }
      ],
      "stateMutability": "view",
      "type": "function"
    },
    {
      "inputs": [
        {
          "internalType": "uint256",
          "name": "proposalId",
          "type": "uint256"
        }
      ],
      "name": "proposalSnapshot",
      "outputs": [
        {
          "internalType": "uint256",
          "name": "",
          "type": "uint256"
        }
      ],
      "stateMutability": "view",
      "type": "function"
    },
    {
      "inputs": [],
      "name": "proposalThreshold",
      "outputs": [
        {
          "internalType": "uint256",
          "name": "",
          "type": "uint256"
        }
      ],
      "stateMutability": "view",
      "type": "function"
    },
    {
      "inputs": [
        {
          "internalType": "uint256",
          "name": "proposalId",
          "type": "uint256"
        }
      ],
      "name": "proposalVotes",
      "outputs": [
        {
          "internalType": "uint256",
          "name": "againstVotes",
          "type": "uint256"
        },
        {
          "internalType": "uint256",
          "name": "forVotes",
          "type": "uint256"
        },
        {
          "internalType": "uint256",
          "name": "abstainVotes",
          "type": "uint256"
        }
      ],
      "stateMutability": "view",
      "type": "function"
    },
    {
      "inputs": [
        {
          "internalType": "address[]",
          "name": "targets",
          "type": "address[]"
        },
        {
          "internalType": "uint256[]",
          "name": "values",
          "type": "uint256[]"
        },
        {
          "internalType": "bytes[]",
          "name": "calldatas",
          "type": "bytes[]"
        },
        {
          "internalType": "string",
          "name": "description",
          "type": "string"
        }
      ],
      "name": "propose",
      "outputs": [
        {
          "internalType": "uint256",
          "name": "",
          "type": "uint256"
        }
      ],
      "stateMutability": "nonpayable",
      "type": "function"
    },
    {
      "inputs": [
        {
          "internalType": "address[]",
          "name": "targets",
          "type": "address[]"
        },
        {
          "internalType": "uint256[]",
          "name": "values",
          "type": "uint256[]"
        },
        {
          "internalType": "bytes[]",
          "name": "calldatas",
          "type": "bytes[]"
        },
        {
          "internalType": "bytes32",
          "name": "descriptionHash",
          "type": "bytes32"
        }
      ],
      "name": "queue",
      "outputs": [
        {
          "internalType": "uint256",
          "name": "",
          "type": "uint256"
        }
      ],
      "stateMutability": "nonpayable",
      "type": "function"
    },
    {
      "inputs": [
        {
          "internalType": "uint256",
          "name": "blockNumber",
          "type": "uint256"
        }
      ],
      "name": "quorum",
      "outputs": [
        {
          "internalType": "uint256",
          "name": "",
          "type": "uint256"
        }
      ],
      "stateMutability": "view",
      "type": "function"
    },
    {
      "inputs": [],
      "name": "quorumDenominator",
      "outputs": [
        {
          "internalType": "uint256",
          "name": "",
          "type": "uint256"
        }
      ],
      "stateMutability": "view",
      "type": "function"
    },
    {
      "inputs": [
        {
          "internalType": "uint256",
          "name": "timepoint",
          "type": "uint256"
        }
      ],
      "name": "quorumNumerator",
      "outputs": [
        {
          "internalType": "uint256",
          "name": "",
          "type": "uint256"
        }
      ],
      "stateMutability": "view",
      "type": "function"
    },
    {
      "inputs": [],
      "name": "quorumNumerator",
      "outputs": [
        {
          "internalType": "uint256",
          "name": "",
          "type": "uint256"
        }
      ],
      "stateMutability": "view",
      "type": "function"
    },
    {
      "inputs": [
        {
          "internalType": "address",
          "name": "target",
          "type": "address"
        },
        {
          "internalType": "uint256",
          "name": "value",
          "type": "uint256"
        },
        {
          "internalType": "bytes",
          "name": "data",
          "type": "bytes"
        }
      ],
      "name": "relay",
      "outputs": [],
      "stateMutability": "payable",
      "type": "function"
    },
    {
      "inputs": [
        {
          "internalType": "uint256",
          "name": "newProposalThreshold",
          "type": "uint256"
        }
      ],
      "name": "setProposalThreshold",
      "outputs": [],
      "stateMutability": "nonpayable",
      "type": "function"
    },
    {
      "inputs": [
        {
          "internalType": "uint48",
          "name": "newVotingDelay",
          "type": "uint48"
        }
      ],
      "name": "setVotingDelay",
      "outputs": [],
      "stateMutability": "nonpayable",
      "type": "function"
    },
    {
      "inputs": [
        {
          "internalType": "uint32",
          "name": "newVotingPeriod",
          "type": "uint32"
        }
      ],
      "name": "setVotingPeriod",
      "outputs": [],
      "stateMutability": "nonpayable",
      "type": "function"
    },
    {
      "inputs": [
        {
          "internalType": "uint256",
          "name": "proposalId",
          "type": "uint256"
        }
      ],
      "name": "state",
      "outputs": [
        {
          "internalType": "enum IGovernor.ProposalState",
          "name": "",
          "type": "uint8"
        }
      ],
      "stateMutability": "view",
      "type": "function"
    },
    {
      "inputs": [
        {
          "internalType": "bytes4",
          "name": "interfaceId",
          "type": "bytes4"
        }
      ],
      "name": "supportsInterface",
      "outputs": [
        {
          "internalType": "bool",
          "name": "",
          "type": "bool"
        }
      ],
      "stateMutability": "view",
      "type": "function"
    },
    {
      "inputs": [],
      "name": "token",
      "outputs": [
        {
          "internalType": "contract IERC5805",
          "name": "",
          "type": "address"
        }
      ],
      "stateMutability": "view",
      "type": "function"
    },
    {
      "inputs": [
        {
          "internalType": "uint256",
          "name": "newQuorumNumerator",
          "type": "uint256"
        }
      ],
      "name": "updateQuorumNumerator",
      "outputs": [],
      "stateMutability": "nonpayable",
      "type": "function"
    },
    {
      "inputs": [],
      "name": "version",
      "outputs": [
        {
          "internalType": "string",
          "name": "",
          "type": "string"
        }
      ],
      "stateMutability": "view",
      "type": "function"
    },
    {
      "inputs": [],
      "name": "votingDelay",
      "outputs": [
        {
          "internalType": "uint256",
          "name": "",
          "type": "uint256"
        }
      ],
      "stateMutability": "view",
      "type": "function"
    },
    {
      "inputs": [],
      "name": "votingPeriod",
      "outputs": [
        {
          "internalType": "uint256",
          "name": "",
          "type": "uint256"
        }
      ],
      "stateMutability": "view",
      "type": "function"
    },
    {
      "stateMutability": "payable",
      "type": "receive"
    }
  ],
  "bytecode": "0x61018060405234801561001157600080fd5b5060405161450a38038061450a833981016040819052610030916106a7565b600481611c2061c4e060006040518060400160405280600a815260200169232623b7bb32b93737b960b11b8152508061006d61016760201b60201c565b610078826000610182565b61012052610087816001610182565b61014052815160208084019190912060e052815190820120610100524660a05261011460e05161010051604080517f8b73c3c69bb8fe3d512ecc4cf759cc79239f7b179b0ffacaa9a75d522b39400f60208201529081019290925260608201524660808201523060a082015260009060c00160405160208183030381529060405280519060200120905090565b60805250503060c0526003610129828261076f565b506101359050836101b5565b61013e8261021b565b610147816102c1565b5050506001600160a01b03166101605261016081610302565b50506108e8565b6040805180820190915260018152603160f81b602082015290565b600060208351101561019e5761019783610398565b90506101af565b816101a9848261076f565b5060ff90505b92915050565b6008546040805165ffffffffffff928316815291831660208301527fc565b045403dc03c2eea82b81a0465edad9e2e7fc4d97e11421c209da93d7a93910160405180910390a16008805465ffffffffffff191665ffffffffffff92909216919091179055565b8063ffffffff1660000361024a5760405163f1cfbf0560e01b8152600060048201526024015b60405180910390fd5b6008546040805163ffffffff66010000000000009093048316815291831660208301527f7e3f7f0708a84de9203036abaa450dccc85ad5ff52f78c170f3edb55cf5e8828910160405180910390a16008805463ffffffff90921666010000000000000263ffffffff60301b19909216919091179055565b60075460408051918252602082018390527fccb45da8d5717e6c4544694297c4ba5cf151d455c9bb0ed4fc7a38411bc05461910160405180910390a1600755565b60648082111561032f5760405163243e544560e01b81526004810183905260248101829052604401610241565b60006103396103d6565b90506103586103466103f0565b61034f8561046b565b600a91906104a3565b505060408051828152602081018590527f0553476bf02ef2726e8ce5ced78d63e26e602e4a2257b1f559418e24b4633997910160405180910390a1505050565b600080829050601f815111156103c3578260405163305a27a960e01b8152600401610241919061082d565b80516103ce8261087b565b179392505050565b60006103e2600a6104be565b6001600160d01b0316905090565b60006103fc6101605190565b6001600160a01b03166391ddadf46040518163ffffffff1660e01b8152600401602060405180830381865afa925050508015610455575060408051601f3d908101601f191682019092526104529181019061089f565b60015b61046657610461610509565b905090565b919050565b60006001600160d01b0382111561049f576040516306dfcc6560e41b815260d0600482015260248101839052604401610241565b5090565b6000806104b1858585610514565b915091505b935093915050565b805460009080156104ff576104e6836104d86001846108c7565b600091825260209091200190565b54660100000000000090046001600160d01b0316610502565b60005b9392505050565b600061046143610674565b825460009081908015610616576000610532876104d86001856108c7565b805490915065ffffffffffff80821691660100000000000090046001600160d01b031690881682111561057857604051632520601d60e01b815260040160405180910390fd5b8765ffffffffffff168265ffffffffffff16036105b457825465ffffffffffff1666010000000000006001600160d01b03891602178355610608565b6040805180820190915265ffffffffffff808a1682526001600160d01b03808a1660208085019182528d54600181018f5560008f815291909120945191519092166601000000000000029216919091179101555b94508593506104b692505050565b50506040805180820190915265ffffffffffff80851682526001600160d01b0380851660208085019182528854600181018a5560008a81529182209551925190931666010000000000000291909316179201919091559050816104b6565b600065ffffffffffff82111561049f576040516306dfcc6560e41b81526030600482015260248101839052604401610241565b6000602082840312156106b957600080fd5b81516001600160a01b038116811461050257600080fd5b634e487b7160e01b600052604160045260246000fd5b600181811c908216806106fa57607f821691505b60208210810361071a57634e487b7160e01b600052602260045260246000fd5b50919050565b601f82111561076a57806000526020600020601f840160051c810160208510156107475750805b601f840160051c820191505b818110156107675760008155600101610753565b50505b505050565b81516001600160401b03811115610788576107886106d0565b61079c8161079684546106e6565b84610720565b6020601f8211600181146107d057600083156107b85750848201515b600019600385901b1c1916600184901b178455610767565b600084815260208120601f198516915b8281101561080057878501518255602094850194600190920191016107e0565b508482101561081e5786840151600019600387901b60f8161c191681555b50505050600190811b01905550565b602081526000825180602084015260005b8181101561085b576020818601810151604086840101520161083e565b506000604082850101526040601f19601f83011684010191505092915050565b8051602080830151919081101561071a5760001960209190910360031b1b16919050565b6000602082840312156108b157600080fd5b815165ffffffffffff8116811461050257600080fd5b818103818111156101af57634e487b7160e01b600052601160045260246000fd5b60805160a05160c05160e05161010051610120516101405161016051613ba16109696000396000818161097f01528181610dfb0152818161135201528181611f25015261211601526000611ef001526000611ec30152600061233f01526000612317015260006122720152600061229c015260006122c60152613ba16000f3fe6080604052600436106102815760003560e01c80637d5e81e21161014f578063bc197c81116100c1578063e540d01d1161007a578063e540d01d146108c4578063eb9019d4146108e4578063ece40cc114610904578063f23a6e6114610924578063f8ce560a14610950578063fc0c546a1461097057600080fd5b8063bc197c81146107cb578063c01f9e37146107f7578063c28bc2fa14610817578063c59057e41461082a578063dd4e2ba51461084a578063deaaa7cc1461089057600080fd5b806397c3d3341161011357806397c3d334146107145780639a802a6d14610728578063a7713a7014610748578063a9a952941461075d578063ab58fb8e1461077e578063b58131b0146107b657600080fd5b80637d5e81e21461064a5780637ecebe001461066a57806384b0196e146106a05780638ff262e3146106c857806391ddadf4146106e857600080fd5b80633e4f49e6116101f357806356781388116101ac578063567813881461058a5780635b8d0e0d146105aa5780635f398a14146105ca57806360c4247f146105ea578063790518871461060a5780637b3c71d31461062a57600080fd5b80633e4f49e61461045f578063438596321461048c578063452115d6146104d65780634bf5d7e9146104f6578063544ffc9c1461050b57806354fd4d501461056057600080fd5b8063150b7a0211610245578063150b7a021461037f578063160cbed7146103c35780632656227d146103e35780632d63f693146103f65780632fe3e261146104165780633932abb11461044a57600080fd5b806301ffc9a71461028e57806302a251a3146102c357806306f3f9e6146102ef57806306fdde031461030f578063143489d01461033157600080fd5b36610289575b005b600080fd5b34801561029a57600080fd5b506102ae6102a9366004612bb2565b6109a3565b60405190151581526020015b60405180910390f35b3480156102cf57600080fd5b50600854600160301b900463ffffffff165b6040519081526020016102ba565b3480156102fb57600080fd5b5061028761030a366004612bdc565b6109fa565b34801561031b57600080fd5b50610324610a0e565b6040516102ba9190612c45565b34801561033d57600080fd5b5061036761034c366004612bdc565b6000908152600460205260409020546001600160a01b031690565b6040516001600160a01b0390911681526020016102ba565b34801561038b57600080fd5b506103aa61039a366004612d3a565b630a85bd0160e11b949350505050565b6040516001600160e01b031990911681526020016102ba565b3480156103cf57600080fd5b506102e16103de366004612f09565b610aa0565b6102e16103f1366004612f09565b610aea565b34801561040257600080fd5b506102e1610411366004612bdc565b610c15565b34801561042257600080fd5b506102e17f3e83946653575f9a39005e1545185629e92736b7528ab20ca3816f315424a81181565b34801561045657600080fd5b506102e1610c36565b34801561046b57600080fd5b5061047f61047a366004612bdc565b610c49565b6040516102ba9190612fda565b34801561049857600080fd5b506102ae6104a7366004612fe8565b60008281526009602090815260408083206001600160a01b038516845260030190915290205460ff1692915050565b3480156104e257600080fd5b506102e16104f1366004612f09565b610d88565b34801561050257600080fd5b50610324610df7565b34801561051757600080fd5b50610545610526366004612bdc565b6000908152600960205260409020805460018201546002909201549092565b604080519384526020840192909252908201526060016102ba565b34801561056c57600080fd5b506040805180820190915260018152603160f81b6020820152610324565b34801561059657600080fd5b506102e16105a5366004613025565b610eb9565b3480156105b657600080fd5b506102e16105c5366004613090565b610ee2565b3480156105d657600080fd5b506102e16105e5366004613152565b611041565b3480156105f657600080fd5b506102e1610605366004612bdc565b611096565b34801561061657600080fd5b506102876106253660046131ed565b611124565b34801561063657600080fd5b506102e161064536600461320a565b611135565b34801561065657600080fd5b506102e1610665366004613263565b61117d565b34801561067657600080fd5b506102e1610685366004613327565b6001600160a01b031660009081526002602052604090205490565b3480156106ac57600080fd5b506106b5611236565b6040516102ba979695949392919061337e565b3480156106d457600080fd5b506102e16106e33660046133ee565b61127c565b3480156106f457600080fd5b506106fd61134e565b60405165ffffffffffff90911681526020016102ba565b34801561072057600080fd5b5060646102e1565b34801561073457600080fd5b506102e161074336600461343d565b6113d6565b34801561075457600080fd5b506102e16113ed565b34801561076957600080fd5b506102ae610778366004612bdc565b50600090565b34801561078a57600080fd5b506102e1610799366004612bdc565b60009081526004602052604090206001015465ffffffffffff1690565b3480156107c257600080fd5b506102e1611407565b3480156107d757600080fd5b506103aa6107e6366004613493565b63bc197c8160e01b95945050505050565b34801561080357600080fd5b506102e1610812366004612bdc565b611412565b61028761082536600461352d565b611455565b34801561083657600080fd5b506102e1610845366004612f09565b6114d5565b34801561085657600080fd5b506040805180820190915260208082527f737570706f72743d627261766f2671756f72756d3d666f722c6162737461696e90820152610324565b34801561089c57600080fd5b506102e17ff2aad550cf55f045cb27e9c559f9889fdfb6e6cdaa032301d6ea397784ae51d781565b3480156108d057600080fd5b506102876108df36600461356e565b61150f565b3480156108f057600080fd5b506102e16108ff366004613594565b611520565b34801561091057600080fd5b5061028761091f366004612bdc565b611541565b34801561093057600080fd5b506103aa61093f3660046135be565b63f23a6e6160e01b95945050505050565b34801561095c57600080fd5b506102e161096b366004612bdc565b611552565b34801561097c57600080fd5b507f0000000000000000000000000000000000000000000000000000000000000000610367565b60006001600160e01b031982166332a2ad4360e11b14806109d457506001600160e01b03198216630271189760e51b145b806109ef57506301ffc9a760e01b6001600160e01b03198316145b92915050565b905090565b610a0261155d565b610a0b81611594565b50565b606060038054610a1d90613616565b80601f0160208091040260200160405190810160405280929190818152602001828054610a4990613616565b8015610a965780601f10610a6b57610100808354040283529160200191610a96565b820191906000526020600020905b815481529060010190602001808311610a7957829003601f168201915b5050505050905090565b600080610aaf868686866114d5565b9050610ac481610abf600461162a565b61164d565b506000604051634844252360e11b815260040160405180910390fd5b5095945050505050565b600080610af9868686866114d5565b9050610b1981610b09600561162a565b610b13600461162a565b1761164d565b506000818152600460205260409020805460ff60f01b1916600160f01b17905530610b413090565b6001600160a01b031614610bcb5760005b8651811015610bc957306001600160a01b0316878281518110610b7757610b77613650565b60200260200101516001600160a01b031603610bc157610bc1858281518110610ba257610ba2613650565b602002602001015180519060200120600561168c90919063ffffffff16565b600101610b52565b505b610bd881878787876116ee565b6040518181527f712ae1383f79ac853f8d882153778e0260ef8f03b504e2866e0593e04d2b291f906020015b60405180910390a195945050505050565b600090815260046020526040902054600160a01b900465ffffffffffff1690565b60006109f560085465ffffffffffff1690565b6000818152600460205260408120805460ff600160f01b8204811691600160f81b9004168115610c7e57506007949350505050565b8015610c8f57506002949350505050565b6000610c9a86610c15565b905080600003610cc557604051636ad0607560e01b8152600481018790526024015b60405180910390fd5b6000610ccf61134e565b65ffffffffffff169050808210610ced575060009695505050505050565b6000610cf888611412565b9050818110610d0f57506001979650505050505050565b610d18886117c8565b1580610d3857506000888152600960205260409020805460019091015411155b15610d4b57506003979650505050505050565b60008881526004602052604090206001015465ffffffffffff16600003610d7a57506004979650505050505050565b506005979650505050505050565b600080610d97868686866114d5565b9050610da781610abf600061162a565b506000818152600460205260409020546001600160a01b03163314610de15760405163233d98e360e01b8152336004820152602401610cbc565b610ded868686866117ff565b9695505050505050565b60607f00000000000000000000000000000000000000000000000000000000000000006001600160a01b0316634bf5d7e96040518163ffffffff1660e01b8152600401600060405180830381865afa925050508015610e7857506040513d6000823e601f3d908101601f19168201604052610e759190810190613666565b60015b610eb4575060408051808201909152601d81527f6d6f64653d626c6f636b6e756d6265722666726f6d3d64656661756c74000000602082015290565b919050565b600080339050610eda848285604051806020016040528060008152506118b0565b949350505050565b600080610fc587610fbf7f3e83946653575f9a39005e1545185629e92736b7528ab20ca3816f315424a8118c8c8c610f378e6001600160a01b0316600090815260026020526040902080546001810190915590565b8d8d604051610f479291906136d3565b60405180910390208c80519060200120604051602001610fa49796959493929190968752602087019590955260ff9390931660408601526001600160a01b03919091166060850152608084015260a083015260c082015260e00190565b604051602081830303815290604052805190602001206118dc565b85611909565b905080610ff0576040516394ab6c0760e01b81526001600160a01b0388166004820152602401610cbc565b61103489888a89898080601f0160208091040260200160405190810160405280939291908181526020018383808284376000920191909152508b925061197d915050565b9998505050505050505050565b60008033905061108b87828888888080601f0160208091040260200160405190810160405280939291908181526020018383808284376000920191909152508a925061197d915050565b979650505050505050565b600a805460009182906110aa6001846136f9565b815481106110ba576110ba613650565b6000918252602090912001805490915065ffffffffffff811690600160301b90046001600160d01b03168582116110fd576001600160d01b031695945050505050565b61111161110987611a5f565b600a90611a96565b6001600160d01b03169695505050505050565b61112c61155d565b610a0b81611b4b565b600080339050610ded86828787878080601f0160208091040260200160405190810160405280939291908181526020018383808284376000920191909152506118b092505050565b60003361118a8184611bb1565b6111b25760405163d9b3955760e01b81526001600160a01b0382166004820152602401610cbc565b60006111bc611407565b905080156112295760006111eb8360016111d461134e565b6111de919061370c565b65ffffffffffff16611520565b90508181101561122757604051636121770b60e11b81526001600160a01b03841660048201526024810182905260448101839052606401610cbc565b505b61108b8787878786611c9c565b60006060806000806000606061124a611ebc565b611252611ee9565b60408051600080825260208201909252600f60f81b9b939a50919850469750309650945092509050565b60008061130884610fbf7ff2aad550cf55f045cb27e9c559f9889fdfb6e6cdaa032301d6ea397784ae51d78989896112d18b6001600160a01b0316600090815260026020526040902080546001810190915590565b60408051602081019690965285019390935260ff90911660608401526001600160a01b0316608083015260a082015260c001610fa4565b905080611333576040516394ab6c0760e01b81526001600160a01b0385166004820152602401610cbc565b610ded868587604051806020016040528060008152506118b0565b60007f00000000000000000000000000000000000000000000000000000000000000006001600160a01b03166391ddadf46040518163ffffffff1660e01b8152600401602060405180830381865afa9250505080156113ca575060408051601f3d908101601f191682019092526113c79181019061372a565b60015b610eb4576109f5611f16565b60006113e3848484611f21565b90505b9392505050565b60006113f9600a611fb7565b6001600160d01b0316905090565b60006109f560075490565b60008181526004602052604081205461144790600160d01b810463ffffffff1690600160a01b900465ffffffffffff16613747565b65ffffffffffff1692915050565b61145d61155d565b600080856001600160a01b031685858560405161147b9291906136d3565b60006040518083038185875af1925050503d80600081146114b8576040519150601f19603f3d011682016040523d82523d6000602084013e6114bd565b606091505b50915091506114cc8282611ff0565b50505050505050565b6000848484846040516020016114ee94939291906137fc565b60408051601f19818403018152919052805160209091012095945050505050565b61151761155d565b610a0b8161200c565b60006113e6838361153c60408051602081019091526000815290565b611f21565b61154961155d565b610a0b816120aa565b60006109ef826120eb565b30331461157f576040516347096e4760e01b8152336004820152602401610cbc565b565b8061158c6005612195565b036115815750565b6064808211156115c15760405163243e544560e01b81526004810183905260248101829052604401610cbc565b60006115cb6113ed565b90506115ea6115d861134e565b6115e185612204565b600a9190612238565b505060408051828152602081018590527f0553476bf02ef2726e8ce5ced78d63e26e602e4a2257b1f559418e24b4633997910160405180910390a1505050565b600081600781111561163e5761163e612fa2565b600160ff919091161b92915050565b60008061165984610c49565b90506000836116678361162a565b16036113e6578381846040516331b75e4d60e01b8152600401610cbc93929190613847565b81546001600160801b03600160801b8204811691811660018301909116036116b8576116b86041612253565b6001600160801b03808216600090815260018086016020526040909120939093558354919092018216600160801b029116179055565b60005b84518110156117c05760008086838151811061170f5761170f613650565b60200260200101516001600160a01b031686848151811061173257611732613650565b602002602001015186858151811061174c5761174c613650565b60200260200101516040516117619190613869565b60006040518083038185875af1925050503d806000811461179e576040519150601f19603f3d011682016040523d82523d6000602084013e6117a3565b606091505b50915091506117b28282611ff0565b5050508060010190506116f1565b505050505050565b6000818152600960205260408120600281015460018201546117ea9190613885565b6117f661096b85610c15565b11159392505050565b60008061180e868686866114d5565b905061185c8161181e600761162a565b611828600661162a565b611832600261162a565b600161183f600782613898565b61184a906002613990565b61185491906136f9565b18181861164d565b506000818152600460205260409081902080546001600160f81b0316600160f81b179055517f789cf55be980739dad1d0699b93b58e806b51c9d96619bfa8fe0a28abaa7b30c90610c049083815260200190565b60006118d3858585856118ce60408051602081019091526000815290565b61197d565b95945050505050565b60006109ef6118e9612265565b8360405161190160f01b8152600281019290925260228201526042902090565b6000836001600160a01b03163b60000361196b5760008061192a8585612390565b509092509050600081600381111561194457611944612fa2565b1480156119625750856001600160a01b0316826001600160a01b0316145b925050506113e6565b6119768484846123dd565b90506113e6565b600061198d86610abf600161162a565b5060006119a38661199d89610c15565b85611f21565b905060006119b488888885886124b8565b90508351600003611a0b57866001600160a01b03167fb8e138887d0aa13bab447e82de9d5c1777041ecd21ca36ba824ff1e6c07ddda4898884896040516119fe949392919061399f565b60405180910390a261108b565b866001600160a01b03167fe2babfbac5889a709b63bb7f598b324e08bc5a4fb9ec647fb3cbc9ec07eb87128988848989604051611a4c9594939291906139c7565b60405180910390a2979650505050505050565b600065ffffffffffff821115611a92576040516306dfcc6560e41b81526030600482015260248101839052604401610cbc565b5090565b815460009081816005811115611af5576000611ab1846125bb565b611abb90856136f9565b60008881526020902090915081015465ffffffffffff9081169087161015611ae557809150611af3565b611af0816001613885565b92505b505b6000611b0387878585612714565b90508015611b3e57611b2887611b1a6001846136f9565b600091825260209091200190565b54600160301b90046001600160d01b031661108b565b6000979650505050505050565b6008546040805165ffffffffffff928316815291831660208301527fc565b045403dc03c2eea82b81a0465edad9e2e7fc4d97e11421c209da93d7a93910160405180910390a16008805465ffffffffffff191665ffffffffffff92909216919091179055565b80516000906034811015611bc95760019150506109ef565b82810160131901516001600160a01b031981166b046e0e4dee0dee6cae47a60f60a31b14611bfc576001925050506109ef565b600080611c0a6028856136f9565b90505b83811015611c7b57600080611c41888481518110611c2d57611c2d613650565b01602001516001600160f81b031916612776565b9150915081611c5957600196505050505050506109ef565b8060ff166004856001600160a01b0316901b1793505050806001019050611c0d565b50856001600160a01b0316816001600160a01b031614935050505092915050565b6000611cb186868686805190602001206114d5565b905084518651141580611cc657508351865114155b80611cd057508551155b15611d0557855184518651604051630447b05d60e41b8152600481019390935260248301919091526044820152606401610cbc565b600081815260046020526040902054600160a01b900465ffffffffffff1615611d505780611d3282610c49565b6040516331b75e4d60e01b8152610cbc929190600090600401613847565b6000611d5a610c36565b611d6261134e565b65ffffffffffff16611d749190613885565b90506000611d8f60085463ffffffff600160301b9091041690565b600084815260046020526040902080546001600160a01b0319166001600160a01b038716178155909150611dc283611a5f565b815465ffffffffffff91909116600160a01b0265ffffffffffff60a01b19909116178155611def82612808565b815463ffffffff91909116600160d01b0263ffffffff60d01b1990911617815588517f7d84a6263ae0d98d3329bd7b46bb4e8d6f98cd35a7adb45c274c8b7fd5ebd5e090859087908c908c906001600160401b03811115611e5257611e52612c6f565b604051908082528060200260200182016040528015611e8557816020015b6060815260200190600190039081611e705790505b508c89611e928a82613885565b8e604051611ea899989796959493929190613a0d565b60405180910390a150505095945050505050565b60606109f57f00000000000000000000000000000000000000000000000000000000000000006000612839565b60606109f57f00000000000000000000000000000000000000000000000000000000000000006001612839565b60006109f543611a5f565b60007f0000000000000000000000000000000000000000000000000000000000000000604051630748d63560e31b81526001600160a01b038681166004830152602482018690529190911690633a46b1a890604401602060405180830381865afa158015611f93573d6000803e3d6000fd5b505050506040513d601f19601f820116820180604052508101906113e39190613aea565b80546000908015611fe757611fd183611b1a6001846136f9565b54600160301b90046001600160d01b03166113e6565b60009392505050565b60608261200557612000826128e4565b6109ef565b50806109ef565b8063ffffffff166000036120365760405163f1cfbf0560e01b815260006004820152602401610cbc565b6008546040805163ffffffff600160301b9093048316815291831660208301527f7e3f7f0708a84de9203036abaa450dccc85ad5ff52f78c170f3edb55cf5e8828910160405180910390a16008805463ffffffff909216600160301b0269ffffffff00000000000019909216919091179055565b60075460408051918252602082018390527fccb45da8d5717e6c4544694297c4ba5cf151d455c9bb0ed4fc7a38411bc05461910160405180910390a1600755565b600060646120f883611096565b604051632394e7a360e21b8152600481018590526001600160a01b037f00000000000000000000000000000000000000000000000000000000000000001690638e539e8c90602401602060405180830381865afa15801561215d573d6000803e3d6000fd5b505050506040513d601f19601f820116820180604052508101906121819190613aea565b61218b9190613b03565b6109ef9190613b30565b80546000906001600160801b0380821691600160801b90041681036121be576121be6031612253565b6001600160801b038181166000908152600185810160205260408220805492905585546fffffffffffffffffffffffffffffffff19169301909116919091179092555090565b60006001600160d01b03821115611a92576040516306dfcc6560e41b815260d0600482015260248101839052604401610cbc565b60008061224685858561290d565b915091505b935093915050565b634e487b71600052806020526024601cfd5b6000306001600160a01b037f0000000000000000000000000000000000000000000000000000000000000000161480156122be57507f000000000000000000000000000000000000000000000000000000000000000046145b156122e857507f000000000000000000000000000000000000000000000000000000000000000090565b6109f5604080517f8b73c3c69bb8fe3d512ecc4cf759cc79239f7b179b0ffacaa9a75d522b39400f60208201527f0000000000000000000000000000000000000000000000000000000000000000918101919091527f000000000000000000000000000000000000000000000000000000000000000060608201524660808201523060a082015260009060c00160405160208183030381529060405280519060200120905090565b600080600083516041036123ca5760208401516040850151606086015160001a6123bc88828585612a61565b9550955095505050506123d6565b50508151600091506002905b9250925092565b6000806000856001600160a01b031685856040516024016123ff929190613b52565b60408051601f198184030181529181526020820180516001600160e01b0316630b135d3f60e11b179052516124349190613869565b600060405180830381855afa9150503d806000811461246f576040519150601f19603f3d011682016040523d82523d6000602084013e612474565b606091505b509150915081801561248857506020815110155b8015610ded57508051630b135d3f60e11b906124ad9083016020908101908401613aea565b149695505050505050565b60008581526009602090815260408083206001600160a01b03881684526003810190925282205460ff161561250b576040516371c6af4960e01b81526001600160a01b0387166004820152602401610cbc565b6001600160a01b03861660009081526003820160205260409020805460ff1916600117905560ff8516612557578381600001600082825461254c9190613885565b909155506125b09050565b60001960ff861601612577578381600101600082825461254c9190613885565b60011960ff861601612597578381600201600082825461254c9190613885565b6040516303599be160e11b815260040160405180910390fd5b509195945050505050565b6000600182116125c9575090565b816001600160801b82106125e25760809190911c9060401b5b6801000000000000000082106125fd5760409190911c9060201b5b64010000000082106126145760209190911c9060101b5b6201000082106126295760109190911c9060081b5b610100821061263d5760089190911c9060041b5b601082106126505760049190911c9060021b5b6004821061265c5760011b5b600302600190811c9081858161267457612674613b1a565b048201901c9050600181858161268c5761268c613b1a565b048201901c905060018185816126a4576126a4613b1a565b048201901c905060018185816126bc576126bc613b1a565b048201901c905060018185816126d4576126d4613b1a565b048201901c905060018185816126ec576126ec613b1a565b048201901c905061270b81858161270557612705613b1a565b04821190565b90039392505050565b60005b8183101561276e57600061272b8484612b30565b60008781526020902090915065ffffffffffff86169082015465ffffffffffff16111561275a57809250612768565b612765816001613885565b93505b50612717565b509392505050565b60008060f883901c602f811180156127915750603a8160ff16105b156127a657600194602f199091019350915050565b8060ff1660401080156127bc575060478160ff16105b156127d1576001946036199091019350915050565b8060ff1660601080156127e7575060678160ff16105b156127fc576001946056199091019350915050565b50600093849350915050565b600063ffffffff821115611a92576040516306dfcc6560e41b81526020600482015260248101839052604401610cbc565b606060ff83146128535761284c83612b4b565b90506109ef565b81805461285f90613616565b80601f016020809104026020016040519081016040528092919081815260200182805461288b90613616565b80156128d85780601f106128ad576101008083540402835291602001916128d8565b820191906000526020600020905b8154815290600101906020018083116128bb57829003601f168201915b505050505090506109ef565b8051156128f45780518082602001fd5b60405163d6bda27560e01b815260040160405180910390fd5b825460009081908015612a0657600061292b87611b1a6001856136f9565b805490915065ffffffffffff80821691600160301b90046001600160d01b031690881682111561296e57604051632520601d60e01b815260040160405180910390fd5b8765ffffffffffff168265ffffffffffff16036129a757825465ffffffffffff16600160301b6001600160d01b038916021783556129f8565b6040805180820190915265ffffffffffff808a1682526001600160d01b03808a1660208085019182528d54600181018f5560008f81529190912094519151909216600160301b029216919091179101555b945085935061224b92505050565b50506040805180820190915265ffffffffffff80851682526001600160d01b0380851660208085019182528854600181018a5560008a815291822095519251909316600160301b02919093161792019190915590508161224b565b600080807f7fffffffffffffffffffffffffffffff5d576e7357a4501ddfe92f46681b20a0841115612a9c5750600091506003905082612b26565b604080516000808252602082018084528a905260ff891692820192909252606081018790526080810186905260019060a0016020604051602081039080840390855afa158015612af0573d6000803e3d6000fd5b5050604051601f1901519150506001600160a01b038116612b1c57506000925060019150829050612b26565b9250600091508190505b9450945094915050565b6000612b3f6002848418613b30565b6113e690848416613885565b60606000612b5883612b8a565b604080516020808252818301909252919250600091906020820181803683375050509182525060208101929092525090565b600060ff8216601f8111156109ef57604051632cd44ac360e21b815260040160405180910390fd5b600060208284031215612bc457600080fd5b81356001600160e01b0319811681146113e657600080fd5b600060208284031215612bee57600080fd5b5035919050565b60005b83811015612c10578181015183820152602001612bf8565b50506000910152565b60008151808452612c31816020860160208601612bf5565b601f01601f19169290920160200192915050565b6020815260006113e66020830184612c19565b80356001600160a01b0381168114610eb457600080fd5b634e487b7160e01b600052604160045260246000fd5b604051601f8201601f191681016001600160401b0381118282101715612cad57612cad612c6f565b604052919050565b60006001600160401b03821115612cce57612cce612c6f565b50601f01601f191660200190565b6000612cef612cea84612cb5565b612c85565b9050828152838383011115612d0357600080fd5b828260208301376000602084830101529392505050565b600082601f830112612d2b57600080fd5b6113e683833560208501612cdc565b60008060008060808587031215612d5057600080fd5b612d5985612c58565b9350612d6760208601612c58565b92506040850135915060608501356001600160401b03811115612d8957600080fd5b612d9587828801612d1a565b91505092959194509250565b60006001600160401b03821115612dba57612dba612c6f565b5060051b60200190565b600082601f830112612dd557600080fd5b8135612de3612cea82612da1565b8082825260208201915060208360051b860101925085831115612e0557600080fd5b602085015b83811015610ae057612e1b81612c58565b835260209283019201612e0a565b600082601f830112612e3a57600080fd5b8135612e48612cea82612da1565b8082825260208201915060208360051b860101925085831115612e6a57600080fd5b602085015b83811015610ae0578035835260209283019201612e6f565b600082601f830112612e9857600080fd5b8135612ea6612cea82612da1565b8082825260208201915060208360051b860101925085831115612ec857600080fd5b602085015b83811015610ae05780356001600160401b03811115612eeb57600080fd5b612efa886020838a0101612d1a565b84525060209283019201612ecd565b60008060008060808587031215612f1f57600080fd5b84356001600160401b03811115612f3557600080fd5b612f4187828801612dc4565b94505060208501356001600160401b03811115612f5d57600080fd5b612f6987828801612e29565b93505060408501356001600160401b03811115612f8557600080fd5b612f9187828801612e87565b949793965093946060013593505050565b634e487b7160e01b600052602160045260246000fd5b60088110612fd657634e487b7160e01b600052602160045260246000fd5b9052565b602081016109ef8284612fb8565b60008060408385031215612ffb57600080fd5b8235915061300b60208401612c58565b90509250929050565b803560ff81168114610eb457600080fd5b6000806040838503121561303857600080fd5b8235915061300b60208401613014565b60008083601f84011261305a57600080fd5b5081356001600160401b0381111561307157600080fd5b60208301915083602082850101111561308957600080fd5b9250929050565b600080600080600080600060c0888a0312156130ab57600080fd5b873596506130bb60208901613014565b95506130c960408901612c58565b945060608801356001600160401b038111156130e457600080fd5b6130f08a828b01613048565b90955093505060808801356001600160401b0381111561310f57600080fd5b61311b8a828b01612d1a565b92505060a08801356001600160401b0381111561313757600080fd5b6131438a828b01612d1a565b91505092959891949750929550565b60008060008060006080868803121561316a57600080fd5b8535945061317a60208701613014565b935060408601356001600160401b0381111561319557600080fd5b6131a188828901613048565b90945092505060608601356001600160401b038111156131c057600080fd5b6131cc88828901612d1a565b9150509295509295909350565b65ffffffffffff81168114610a0b57600080fd5b6000602082840312156131ff57600080fd5b81356113e6816131d9565b6000806000806060858703121561322057600080fd5b8435935061323060208601613014565b925060408501356001600160401b0381111561324b57600080fd5b61325787828801613048565b95989497509550505050565b6000806000806080858703121561327957600080fd5b84356001600160401b0381111561328f57600080fd5b61329b87828801612dc4565b94505060208501356001600160401b038111156132b757600080fd5b6132c387828801612e29565b93505060408501356001600160401b038111156132df57600080fd5b6132eb87828801612e87565b92505060608501356001600160401b0381111561330757600080fd5b8501601f8101871361331857600080fd5b612d9587823560208401612cdc565b60006020828403121561333957600080fd5b6113e682612c58565b600081518084526020840193506020830160005b82811015613374578151865260209586019590910190600101613356565b5093949350505050565b60ff60f81b8816815260e06020820152600061339d60e0830189612c19565b82810360408401526133af8189612c19565b606084018890526001600160a01b038716608085015260a0840186905283810360c085015290506133e08185613342565b9a9950505050505050505050565b6000806000806080858703121561340457600080fd5b8435935061341460208601613014565b925061342260408601612c58565b915060608501356001600160401b03811115612d8957600080fd5b60008060006060848603121561345257600080fd5b61345b84612c58565b92506020840135915060408401356001600160401b0381111561347d57600080fd5b61348986828701612d1a565b9150509250925092565b600080600080600060a086880312156134ab57600080fd5b6134b486612c58565b94506134c260208701612c58565b935060408601356001600160401b038111156134dd57600080fd5b6134e988828901612e29565b93505060608601356001600160401b0381111561350557600080fd5b61351188828901612e29565b92505060808601356001600160401b038111156131c057600080fd5b6000806000806060858703121561354357600080fd5b61354c85612c58565b93506020850135925060408501356001600160401b0381111561324b57600080fd5b60006020828403121561358057600080fd5b813563ffffffff811681146113e657600080fd5b600080604083850312156135a757600080fd5b6135b083612c58565b946020939093013593505050565b600080600080600060a086880312156135d657600080fd5b6135df86612c58565b94506135ed60208701612c58565b9350604086013592506060860135915060808601356001600160401b038111156131c057600080fd5b600181811c9082168061362a57607f821691505b60208210810361364a57634e487b7160e01b600052602260045260246000fd5b50919050565b634e487b7160e01b600052603260045260246000fd5b60006020828403121561367857600080fd5b81516001600160401b0381111561368e57600080fd5b8201601f8101841361369f57600080fd5b80516136ad612cea82612cb5565b8181528560208385010111156136c257600080fd5b6118d3826020830160208601612bf5565b8183823760009101908152919050565b634e487b7160e01b600052601160045260246000fd5b818103818111156109ef576109ef6136e3565b65ffffffffffff82811682821603908111156109ef576109ef6136e3565b60006020828403121561373c57600080fd5b81516113e6816131d9565b65ffffffffffff81811683821601908111156109ef576109ef6136e3565b600081518084526020840193506020830160005b828110156133745781516001600160a01b0316865260209586019590910190600101613779565b600082825180855260208501945060208160051b8301016020850160005b838110156137f057601f198584030188526137da838351612c19565b60209889019890935091909101906001016137be565b50909695505050505050565b60808152600061380f6080830187613765565b82810360208401526138218187613342565b9050828103604084015261383581866137a0565b91505082606083015295945050505050565b8381526060810161385b6020830185612fb8565b826040830152949350505050565b6000825161387b818460208701612bf5565b9190910192915050565b808201808211156109ef576109ef6136e3565b60ff81811683821601908111156109ef576109ef6136e3565b6001815b600184111561224b578085048111156138d0576138d06136e3565b60018416156138de57908102905b60019390931c9280026138b5565b6000826138fb575060016109ef565b81613908575060006109ef565b816001811461391e576002811461392857613944565b60019150506109ef565b60ff841115613939576139396136e3565b50506001821b6109ef565b5060208310610133831016604e8410600b8410161715613967575081810a6109ef565b61397460001984846138b1565b8060001904821115613988576139886136e3565b029392505050565b60006113e660ff8416836138ec565b84815260ff84166020820152826040820152608060608201526000610ded6080830184612c19565b85815260ff8516602082015283604082015260a0606082015260006139ef60a0830185612c19565b8281036080840152613a018185612c19565b98975050505050505050565b8981526001600160a01b038916602082015261012060408201819052600090613a389083018a613765565b8281036060840152613a4a818a613342565b9050828103608084015280885180835260208301915060208160051b84010160208b0160005b83811015613aa257601f19868403018552613a8c838351612c19565b6020958601959093509190910190600101613a70565b505085810360a0870152613ab6818b6137a0565b93505050508560c08401528460e0840152828103610100840152613ada8185612c19565b9c9b505050505050505050505050565b600060208284031215613afc57600080fd5b5051919050565b80820281158282048414176109ef576109ef6136e3565b634e487b7160e01b600052601260045260246000fd5b600082613b4d57634e487b7160e01b600052601260045260246000fd5b500490565b8281526040602082015260006113e36040830184612c1956fea2646970667358221220b60bcc6d3875f462ab2e16b18d599c8452df95d0dc872bc3921287fd4fbd238764736f6c634300081b0033",
  "linkReferences": {},
  "deployedLinkReferences": {}
}