{
  "_format": "hh-sol-artifact-1",
  "contractName": "FLOrchestrator",
  "sourceName": "contracts/FLOrchestrator.sol",
  "abi": [
    {
      "inputs": [],
      "stateMutability": "nonpayable",
      "type": "constructor"
    },
    {
      "inputs": [],
      "name": "AccessControlBadConfirmation",
      "type": "error"
    },
    {
      "inputs": [
        {
          "internalType": "address",
          "name": "account",
          "type": "address"
        },
        {
          "internalType": "bytes32",
          "name": "neededRole",
          "type": "bytes32"
        }
      ],
      "name": "AccessControlUnauthorizedAccount",
      "type": "error"
    },
    {
      "anonymous": false,
      "inputs": [
        {
          "indexed": true,
          "internalType": "uint256",
          "name": "taskId",
          "type": "uint256"
        },
        {
          "indexed": false,
          "internalType": "address",
          "name": "participant",
          "type": "address"
        }
      ],
      "name": "ParticipantAdded",
      "type": "event"
    },
    {
      "anonymous": false,
      "inputs": [
        {
          "indexed": true,
          "internalType": "uint256",
          "name": "taskId",
          "type": "uint256"
        },
        {
          "indexed": false,
          "internalType": "address",
          "name": "participant",
          "type": "address"
        }
      ],
      "name": "ParticipantRegistered",
      "type": "event"
    },
    {
      "anonymous": false,
      "inputs": [
        {
          "indexed": true,
          "internalType": "address",
          "name": "newCalculator",
          "type": "address"
        }
      ],
      "name": "RewardsCalculatorUpdated",
      "type": "event"
    },
    {
      "anonymous": false,
      "inputs": [
        {
          "indexed": true,
          "internalType": "bytes32",
          "name": "role",
          "type": "bytes32"
        },
        {
          "indexed": true,
          "internalType": "bytes32",
          "name": "previousAdminRole",
          "type": "bytes32"
        },
        {
          "indexed": true,
          "internalType": "bytes32",
          "name": "newAdminRole",
          "type": "bytes32"
        }
      ],
      "name": "RoleAdminChanged",
      "type": "event"
    },
    {
      "anonymous": false,
      "inputs": [
        {
          "indexed": true,
          "internalType": "bytes32",
          "name": "role",
          "type": "bytes32"
        },
        {
          "indexed": true,
          "internalType": "address",
          "name": "account",
          "type": "address"
        },
        {
          "indexed": true,
          "internalType": "address",
          "name": "sender",
          "type": "address"
        }
      ],
      "name": "RoleGranted",
      "type": "event"
    },
    {
      "anonymous": false,
      "inputs": [
        {
          "indexed": true,
          "internalType": "bytes32",
          "name": "role",
          "type": "bytes32"
        },
        {
          "indexed": true,
          "internalType": "address",
          "name": "account",
          "type": "address"
        },
        {
          "indexed": true,
          "internalType": "address",
          "name": "sender",
          "type": "address"
        }
      ],
      "name": "RoleRevoked",
      "type": "event"
    },
    {
      "anonymous": false,
      "inputs": [
        {
          "indexed": true,
          "internalType": "uint256",
          "name": "taskId",
          "type": "uint256"
        },
        {
          "indexed": false,
          "internalType": "uint256",
          "name": "round",
          "type": "uint256"
        }
      ],
      "name": "RoundUpdated",
      "type": "event"
    },
    {
      "anonymous": false,
      "inputs": [
        {
          "indexed": true,
          "internalType": "uint256",
          "name": "taskId",
          "type": "uint256"
        },
        {
          "indexed": false,
          "internalType": "address[]",
          "name": "initialParticipants",
          "type": "address[]"
        }
      ],
      "name": "TaskCreated",
      "type": "event"
    },
    {
      "anonymous": false,
      "inputs": [
        {
          "indexed": true,
          "internalType": "uint256",
          "name": "taskId",
          "type": "uint256"
        },
        {
          "indexed": false,
          "internalType": "enum ITask.TaskStatus",
          "name": "status",
          "type": "uint8"
        }
      ],
      "name": "TaskStatusUpdated",
      "type": "event"
    },
    {
      "inputs": [],
      "name": "DEFAULT_ADMIN_ROLE",
      "outputs": [
        {
          "internalType": "bytes32",
          "name": "",
          "type": "bytes32"
        }
      ],
      "stateMutability": "view",
      "type": "function"
    },
    {
      "inputs": [],
      "name": "ORCHESTRATOR_ROLE",
      "outputs": [
        {
          "internalType": "bytes32",
          "name": "",
          "type": "bytes32"
        }
      ],
      "stateMutability": "view",
      "type": "function"
    },
    {
      "inputs": [
        {
          "internalType": "address",
          "name": "toBlacklist",
          "type": "address"
        }
      ],
      "name": "blacklistAddress",
      "outputs": [],
      "stateMutability": "nonpayable",
      "type": "function"
    },
    {
      "inputs": [
        {
          "internalType": "uint256",
          "name": "taskId",
          "type": "uint256"
        },
        {
          "internalType": "uint256[]",
          "name": "finalScores",
          "type": "uint256[]"
        }
      ],
      "name": "finishTask",
      "outputs": [],
      "stateMutability": "nonpayable",
      "type": "function"
    },
    {
      "inputs": [
        {
          "internalType": "uint256",
          "name": "taskId",
          "type": "uint256"
        }
      ],
      "name": "getCurrentRound",
      "outputs": [
        {
          "internalType": "uint256",
          "name": "",
          "type": "uint256"
        }
      ],
      "stateMutability": "view",
      "type": "function"
    },
    {
      "inputs": [
        {
          "internalType": "uint256",
          "name": "taskId",
          "type": "uint256"
        }
      ],
      "name": "getParticipants",
      "outputs": [
        {
          "internalType": "address[]",
          "name": "",
          "type": "address[]"
        }
      ],
      "stateMutability": "view",
      "type": "function"
    },
    {
      "inputs": [
        {
          "internalType": "bytes32",
          "name": "role",
          "type": "bytes32"
        }
      ],
      "name": "getRoleAdmin",
      "outputs": [
        {
          "internalType": "bytes32",
          "name": "",
          "type": "bytes32"
        }
      ],
      "stateMutability": "view",
      "type": "function"
    },
    {
      "inputs": [
        {
          "internalType": "uint256",
          "name": "taskId",
          "type": "uint256"
        }
      ],
      "name": "getTask",
      "outputs": [
        {
          "internalType": "enum ITask.TaskStatus",
          "name": "status",
          "type": "uint8"
        },
        {
          "internalType": "uint256",
          "name": "currentRound",
          "type": "uint256"
        },
        {
          "internalType": "address[]",
          "name": "participants",
          "type": "address[]"
        }
      ],
      "stateMutability": "view",
      "type": "function"
    },
    {
      "inputs": [
        {
          "internalType": "uint256",
          "name": "taskId",
          "type": "uint256"
        }
      ],
      "name": "getTaskStatus",
      "outputs": [
        {
          "internalType": "enum ITask.TaskStatus",
          "name": "",
          "type": "uint8"
        }
      ],
      "stateMutability": "view",
      "type": "function"
    },
    {
      "inputs": [
        {
          "internalType": "bytes32",
          "name": "role",
          "type": "bytes32"
        },
        {
          "internalType": "address",
          "name": "account",
          "type": "address"
        }
      ],
      "name": "grantRole",
      "outputs": [],
      "stateMutability": "nonpayable",
      "type": "function"
    },
    {
      "inputs": [
        {
          "internalType": "bytes32",
          "name": "role",
          "type": "bytes32"
        },
        {
          "internalType": "address",
          "name": "account",
          "type": "address"
        }
      ],
      "name": "hasRole",
      "outputs": [
        {
          "internalType": "bool",
          "name": "",
          "type": "bool"
        }
      ],
      "stateMutability": "view",
      "type": "function"
    },
    {
      "inputs": [
        {
          "internalType": "uint256",
          "name": "taskId",
          "type": "uint256"
        },
        {
          "internalType": "address",
          "name": "participant",
          "type": "address"
        }
      ],
      "name": "isParticipant",
      "outputs": [
        {
          "internalType": "bool",
          "name": "",
          "type": "bool"
        }
      ],
      "stateMutability": "view",
      "type": "function"
    },
    {
      "inputs": [
        {
          "internalType": "uint256",
          "name": "taskId",
          "type": "uint256"
        }
      ],
      "name": "progressToNextRound",
      "outputs": [],
      "stateMutability": "nonpayable",
      "type": "function"
    },
    {
      "inputs": [
        {
          "internalType": "address[]",
          "name": "initialParticipants",
          "type": "address[]"
        },
        {
          "internalType": "uint256",
          "name": "rewardPool",
          "type": "uint256"
        },
        {
          "internalType": "uint256",
          "name": "initialAccessTokens",
          "type": "uint256"
        }
      ],
      "name": "proposeTask",
      "outputs": [
        {
          "internalType": "uint256",
          "name": "",
          "type": "uint256"
        }
      ],
      "stateMutability": "nonpayable",
      "type": "function"
    },
    {
      "inputs": [
        {
          "internalType": "uint256",
          "name": "taskId",
          "type": "uint256"
        }
      ],
      "name": "registerForTask",
      "outputs": [],
      "stateMutability": "nonpayable",
      "type": "function"
    },
    {
      "inputs": [
        {
          "internalType": "address",
          "name": "toUnBlock",
          "type": "address"
        }
      ],
      "name": "removeFromBlacklist",
      "outputs": [],
      "stateMutability": "nonpayable",
      "type": "function"
    },
    {
      "inputs": [
        {
          "internalType": "bytes32",
          "name": "role",
          "type": "bytes32"
        },
        {
          "internalType": "address",
          "name": "callerConfirmation",
          "type": "address"
        }
      ],
      "name": "renounceRole",
      "outputs": [],
      "stateMutability": "nonpayable",
      "type": "function"
    },
    {
      "inputs": [
        {
          "internalType": "bytes32",
          "name": "role",
          "type": "bytes32"
        },
        {
          "internalType": "address",
          "name": "account",
          "type": "address"
        }
      ],
      "name": "revokeRole",
      "outputs": [],
      "stateMutability": "nonpayable",
      "type": "function"
    },
    {
      "inputs": [],
      "name": "rewardsCalculator",
      "outputs": [
        {
          "internalType": "contract IRewardsCalculator",
          "name": "",
          "type": "address"
        }
      ],
      "stateMutability": "view",
      "type": "function"
    },
    {
      "inputs": [
        {
          "internalType": "uint256",
          "name": "taskId",
          "type": "uint256"
        }
      ],
      "name": "setPayable",
      "outputs": [],
      "stateMutability": "nonpayable",
      "type": "function"
    },
    {
      "inputs": [
        {
          "internalType": "address",
          "name": "calculatorAddress",
          "type": "address"
        }
      ],
      "name": "setRewardsCalculator",
      "outputs": [],
      "stateMutability": "nonpayable",
      "type": "function"
    },
    {
      "inputs": [
        {
          "internalType": "uint256",
          "name": "taskId",
          "type": "uint256"
        }
      ],
      "name": "startTask",
      "outputs": [],
      "stateMutability": "nonpayable",
      "type": "function"
    },
    {
      "inputs": [
        {
          "internalType": "bytes4",
          "name": "interfaceId",
          "type": "bytes4"
        }
      ],
      "name": "supportsInterface",
      "outputs": [
        {
          "internalType": "bool",
          "name": "",
          "type": "bool"
        }
      ],
      "stateMutability": "view",
      "type": "function"
    },
    {
      "inputs": [
        {
          "internalType": "uint256",
          "name": "",
          "type": "uint256"
        }
      ],
      "name": "tasks",
      "outputs": [
        {
          "internalType": "uint256",
          "name": "id",
          "type": "uint256"
        },
        {
          "internalType": "enum ITask.TaskStatus",
          "name": "status",
          "type": "uint8"
        },
        {
          "internalType": "uint256",
          "name": "currentRound",
          "type": "uint256"
        },
        {
          "internalType": "bool",
          "name": "exists",
          "type": "bool"
        },
        {
          "internalType": "uint256",
          "name": "flrTokenPool",
          "type": "uint256"
        },
        {
          "internalType": "uint256",
          "name": "modelTokenAmount",
          "type": "uint256"
        }
      ],
      "stateMutability": "view",
      "type": "function"
    }
  ],
  "bytecode": "0x608060405234801561001057600080fd5b5061001c60003361004d565b506100477fe098e2e7d2d4d3ca0e3877ceaaf3cdfbd47483f6699688ad12b1d6732deef10b3361004d565b506100f9565b6000828152602081815260408083206001600160a01b038516845290915281205460ff166100ef576000838152602081815260408083206001600160a01b03861684529091529020805460ff191660011790556100a73390565b6001600160a01b0316826001600160a01b0316847f2f8788117e7eff1d82e926ec794901d17c78024a50270940304540a733656f0d60405160405180910390a45060016100f3565b5060005b92915050565b6119d5806101086000396000f3fe608060405234801561001057600080fd5b50600436106101585760003560e01c80636d878d10116100c3578063a9c099071161007c578063a9c099071461035c578063bc25bd201461036f578063bfe5223a14610382578063c1e3bd3e14610395578063d547741f146103b5578063f3290d75146103c857600080fd5b80636d878d1014610294578063758d9b89146102bf5780638d977672146102d257806391acf9461461032e57806391d1485414610341578063a217fddf1461035457600080fd5b80632f2ff15d116101155780632f2ff15d1461021557806336568abe146102285780635290900b1461023b578063537df3b61461025b5780635f9443261461026e5780636762b5cc1461028157600080fd5b806301ffc9a71461015d57806309e0a34f14610185578063148b02c5146101a85780631af7dec9146101bb5780631d65e77e146101d0578063248a9ca3146101f2575b600080fd5b61017061016b3660046115a2565b6103db565b60405190151581526020015b60405180910390f35b61019a60008051602061198083398151915281565b60405190815260200161017c565b61019a6101b63660046115d3565b610412565b6101ce6101c9366004611608565b610465565b005b6101e36101de3660046115d3565b610511565b60405161017c939291906116a0565b61019a6102003660046115d3565b60009081526020819052604090206001015490565b6101ce6102233660046116cf565b6105d7565b6101ce6102363660046116cf565b610602565b61024e6102493660046115d3565b61063a565b60405161017c91906116fb565b6101ce610269366004611608565b610688565b6101ce61027c3660046115d3565b610720565b6101ce61028f3660046115d3565b61088d565b6004546102a7906001600160a01b031681565b6040516001600160a01b03909116815260200161017c565b6101706102cd3660046116cf565b6109a9565b61031c6102e03660046115d3565b600160208190526000918252604090912080549181015460028201546004830154600584015460069094015460ff938416949293909116919086565b60405161017c96959493929190611709565b61019a61033c36600461178d565b610a4f565b61017061034f3660046116cf565b610bb8565b61019a600081565b6101ce61036a3660046115d3565b610be1565b6101ce61037d3660046115d3565b610df5565b6101ce6103903660046117de565b610ef9565b6103a86103a33660046115d3565b611096565b60405161017c919061182a565b6101ce6103c33660046116cf565b61113a565b6101ce6103d6366004611608565b61115f565b60006001600160e01b03198216637965db0b60e01b148061040c57506301ffc9a760e01b6001600160e01b03198316145b92915050565b600081815260016020526040812060040154829060ff1661044e5760405162461bcd60e51b81526004016104459061183d565b60405180910390fd5b505060009081526001602052604090206002015490565b6000610470816111d3565b6001600160a01b0382166104c65760405162461bcd60e51b815260206004820152601a60248201527f496e76616c69642063616c63756c61746f7220616464726573730000000000006044820152606401610445565b600480546001600160a01b0319166001600160a01b0384169081179091556040517f90642e10e8e3299dd4a1a829cc9410ffa78799a4c19c0699ad17ce1714bf70ab90600090a25050565b6000818152600160205260408120600401548190606090849060ff166105495760405162461bcd60e51b81526004016104459061183d565b600085815260016020818152604092839020918201546002830154600384018054865181860281018601909752808752949560ff90931694919390929183918301828280156105c157602002820191906000526020600020905b81546001600160a01b031681526001909101906020018083116105a3575b5050505050905094509450945050509193909250565b6000828152602081905260409020600101546105f2816111d3565b6105fc83836111e0565b50505050565b6001600160a01b038116331461062b5760405163334bd91960e11b815260040160405180910390fd5b6106358282611272565b505050565b600081815260016020526040812060040154829060ff1661066d5760405162461bcd60e51b81526004016104459061183d565b50506000908152600160208190526040909120015460ff1690565b6000610693816111d3565b6001600160a01b03821660009081526003602052604090205460ff166106fb5760405162461bcd60e51b815260206004820152601760248201527f41646472657373206e6f7420426c61636b6c69737465640000000000000000006044820152606401610445565b506001600160a01b03166000908152600360205260409020805460ff19166001179055565b600080516020611980833981519152610738816111d3565b600082815260016020526040902060040154829060ff1661076b5760405162461bcd60e51b81526004016104459061183d565b82600080828152600160208190526040909120015460ff16600381111561079457610794611623565b146107e15760405162461bcd60e51b815260206004820152601e60248201527f5461736b206d75737420626520696e2050524f504f53454420737461746500006044820152606401610445565b600084815260016020526040902060038101546108505760405162461bcd60e51b815260206004820152602760248201527f5461736b206d7573742068617665206174206c65617374206f6e6520706172746044820152661a58da5c185b9d60ca1b6064820152608401610445565b6001818101805460ff19168217905560405186916000805160206119608339815191529161087e91906116fb565b60405180910390a25050505050565b6000805160206119808339815191526108a5816111d3565b600082815260016020526040902060040154829060ff166108d85760405162461bcd60e51b81526004016104459061183d565b8260016000828152600160208190526040909120015460ff16600381111561090257610902611623565b1461094f5760405162461bcd60e51b815260206004820152601d60248201527f5461736b206d75737420626520696e20535441525445442073746174650000006044820152606401610445565b6000848152600160205260408120600281018054919261096e8361186a565b9190505550847f1d41d2db921fa91b9381a24cedb839376c0f5e82c7822a79c6695666133b24dc826002015460405161087e91815260200190565b600082815260016020526040812060040154839060ff166109dc5760405162461bcd60e51b81526004016104459061183d565b6000848152600160205260408120600301905b8154811015610a4157846001600160a01b0316828281548110610a1457610a14611891565b6000918252602090912001546001600160a01b031603610a3957600193505050610a48565b6001016109ef565b5060009250505b5092915050565b6000600080516020611980833981519152610a69816111d3565b6000610a736112dd565b90506000610a8188886112f7565b6040805160e081018252848152600060208083018281528385018390526060840186905260016080850181905260a085018d905260c085018c905288845291829052939091208251815592518382018054959650929490929160ff1990911690836003811115610af357610af3611623565b02179055506040820151600282015560608201518051610b1d916003840191602090910190611528565b50608082015160048201805460ff191691151591909117905560a0820151600582015560c09091015160069091015560405182907f46ebc0beced09f2a012af66d545d9ff09681a0372b433e1fd6ad5dd36345caa290610b7e90849061182a565b60405180910390a2816000805160206119608339815191526000604051610ba591906116fb565b60405180910390a2509695505050505050565b6000918252602082815260408084206001600160a01b0393909316845291905290205460ff1690565b600081815260016020526040902060040154819060ff16610c145760405162461bcd60e51b81526004016104459061183d565b81600080828152600160208190526040909120015460ff166003811115610c3d57610c3d611623565b14610c8a5760405162461bcd60e51b815260206004820152601e60248201527f5461736b206d75737420626520696e2050524f504f53454420737461746500006044820152606401610445565b610c9483336109a9565b15610ce15760405162461bcd60e51b815260206004820181905260248201527f416c7265616479207265676973746572656420666f722074686973207461736b6044820152606401610445565b33610d2e5760405162461bcd60e51b815260206004820152601b60248201527f496e76616c6964207061727469636970616e74206164647265737300000000006044820152606401610445565b3360009081526003602052604090205460ff1615610d875760405162461bcd60e51b81526020600482015260166024820152751059191c995cdcc81a5cc8189b1858dadb1a5cdd195960521b6044820152606401610445565b60008381526001602081815260408084206003018054938401815584529281902090910180546001600160a01b03191633908117909155915191825284917f78337b3a0cfc36faafab5a292dc7571f6bd68ba681c22e15c97b1e3469b51a02910160405180910390a2505050565b600080516020611980833981519152610e0d816111d3565b600082815260016020526040902060040154829060ff16610e405760405162461bcd60e51b81526004016104459061183d565b8260026000828152600160208190526040909120015460ff166003811115610e6a57610e6a611623565b14610eb75760405162461bcd60e51b815260206004820152601e60248201527f5461736b206d75737420626520696e2046494e495348454420737461746500006044820152606401610445565b600084815260016020819052604091829020908101805460ff191660039081179091559151909186916000805160206119608339815191529161087e916116fb565b600080516020611980833981519152610f11816111d3565b600084815260016020526040902060040154849060ff16610f445760405162461bcd60e51b81526004016104459061183d565b8460016000828152600160208190526040909120015460ff166003811115610f6e57610f6e611623565b14610fbb5760405162461bcd60e51b815260206004820152601d60248201527f5461736b206d75737420626520696e20535441525445442073746174650000006044820152606401610445565b600086815260016020819052604091829020908101805460ff1916600290811790915591519091889160008051602061196083398151915291610ffd916116fb565b60405180910390a26004546001600160a01b03161561108d5760048054600583015460068401546040516325b59f6d60e21b81526001600160a01b03909316936396d67db49361105a938d9360038901938e938e939291016118a7565b600060405180830381600087803b15801561107457600080fd5b505af1158015611088573d6000803e3d6000fd5b505050505b50505050505050565b600081815260016020526040902060040154606090829060ff166110cc5760405162461bcd60e51b81526004016104459061183d565b6000838152600160209081526040918290206003018054835181840281018401909452808452909183018282801561112d57602002820191906000526020600020905b81546001600160a01b0316815260019091019060200180831161110f575b5050505050915050919050565b600082815260208190526040902060010154611155816111d3565b6105fc8383611272565b600061116a816111d3565b6001600160a01b03821660009081526003602052604090205460ff16156106fb5760405162461bcd60e51b815260206004820152601b60248201527f4164647265737320616c726561647920426c61636b6c697374656400000000006044820152606401610445565b6111dd81336114eb565b50565b60006111ec8383610bb8565b61126a576000838152602081815260408083206001600160a01b03861684529091529020805460ff191660011790556112223390565b6001600160a01b0316826001600160a01b0316847f2f8788117e7eff1d82e926ec794901d17c78024a50270940304540a733656f0d60405160405180910390a450600161040c565b50600061040c565b600061127e8383610bb8565b1561126a576000838152602081815260408083206001600160a01b0386168085529252808320805460ff1916905551339286917ff6391f5c32d9c69d2a47ea670b442974b53935d1edc7fd64eb21e047a839171b9190a450600161040c565b60028054600091826112ee8361186a565b91905055905090565b60606000829003611317575060408051600081526020810190915261040c565b60008267ffffffffffffffff81111561133257611332611949565b60405190808252806020026020018201604052801561135b578160200160208202803683370190505b5090506000805b8481101561144257600086868381811061137e5761137e611891565b90506020020160208101906113939190611608565b90506001600160a01b0381166113a9575061143a565b6000805b848110156113f857826001600160a01b03168682815181106113d1576113d1611891565b60200260200101516001600160a01b0316036113f057600191506113f8565b6001016113ad565b5080611437578185858151811061141157611411611891565b6001600160a01b0390921660209283029190910190910152836114338161186a565b9450505b50505b600101611362565b5060008167ffffffffffffffff81111561145e5761145e611949565b604051908082528060200260200182016040528015611487578160200160208202803683370190505b50905060005b828110156114e1578381815181106114a7576114a7611891565b60200260200101518282815181106114c1576114c1611891565b6001600160a01b039092166020928302919091019091015260010161148d565b5095945050505050565b6114f58282610bb8565b6115245760405163e2517d3f60e01b81526001600160a01b038216600482015260248101839052604401610445565b5050565b82805482825590600052602060002090810192821561157d579160200282015b8281111561157d57825182546001600160a01b0319166001600160a01b03909116178255602090920191600190910190611548565b5061158992915061158d565b5090565b5b80821115611589576000815560010161158e565b6000602082840312156115b457600080fd5b81356001600160e01b0319811681146115cc57600080fd5b9392505050565b6000602082840312156115e557600080fd5b5035919050565b80356001600160a01b038116811461160357600080fd5b919050565b60006020828403121561161a57600080fd5b6115cc826115ec565b634e487b7160e01b600052602160045260246000fd5b6004811061165757634e487b7160e01b600052602160045260246000fd5b9052565b600081518084526020840193506020830160005b828110156116965781516001600160a01b031686526020958601959091019060010161166f565b5093949350505050565b6116aa8185611639565b8260208201526060604082015260006116c6606083018461165b565b95945050505050565b600080604083850312156116e257600080fd5b823591506116f2602084016115ec565b90509250929050565b6020810161040c8284611639565b86815260c0810161171d6020830188611639565b60408201959095529215156060840152608083019190915260a09091015292915050565b60008083601f84011261175357600080fd5b50813567ffffffffffffffff81111561176b57600080fd5b6020830191508360208260051b850101111561178657600080fd5b9250929050565b600080600080606085870312156117a357600080fd5b843567ffffffffffffffff8111156117ba57600080fd5b6117c687828801611741565b90989097506020870135966040013595509350505050565b6000806000604084860312156117f357600080fd5b83359250602084013567ffffffffffffffff81111561181157600080fd5b61181d86828701611741565b9497909650939450505050565b6020815260006115cc602083018461165b565b60208082526013908201527215185cdac8191bd95cc81b9bdd08195e1a5cdd606a1b604082015260600190565b60006001820161188a57634e487b7160e01b600052601160045260246000fd5b5060010190565b634e487b7160e01b600052603260045260246000fd5b600060a0820188835260a0602084015280885480835260c085019150896000526020600020925060005b818110156118f85783546001600160a01b03168352600193840193602090930192016118d1565b50508381036040850152868152600091506001600160fb1b0387111561191d57600080fd5b8660051b8089602084013760608501969096526080909301939093525090910160200195945050505050565b634e487b7160e01b600052604160045260246000fdfe9a4f521400d1b2f610a5c4845f80b4d79e3ec73d18e977ac9e0b0e6e741ec85fe098e2e7d2d4d3ca0e3877ceaaf3cdfbd47483f6699688ad12b1d6732deef10ba2646970667358221220b4093f391fa2209992a71f4ab71caa3860797d05af3bc0cf9dbb144787adb51764736f6c634300081b0033",
  "linkReferences": {},
  "deployedLinkReferences": {}
}