{
  "_format": "hh-sol-artifact-1",
  "contractName": "FLRewarder",
  "sourceName": "contracts/FLRewarder.sol",
  "abi": [
    {
      "inputs": [
        {
          "internalType": "address",
          "name": "_flrToken",
          "type": "address"
        },
        {
          "internalType": "address",
          "name": "_modelAccessToken",
          "type": "address"
        },
        {
          "internalType": "address",
          "name": "_orchestrator",
          "type": "address"
        }
      ],
      "stateMutability": "nonpayable",
      "type": "constructor"
    },
    {
      "inputs": [],
      "name": "AccessControlBadConfirmation",
      "type": "error"
    },
    {
      "inputs": [
        {
          "internalType": "address",
          "name": "account",
          "type": "address"
        },
        {
          "internalType": "bytes32",
          "name": "neededRole",
          "type": "bytes32"
        }
      ],
      "name": "AccessControlUnauthorizedAccount",
      "type": "error"
    },
    {
      "anonymous": false,
      "inputs": [
        {
          "indexed": true,
          "internalType": "uint256",
          "name": "taskId",
          "type": "uint256"
        },
        {
          "indexed": false,
          "internalType": "uint256",
          "name": "participantCount",
          "type": "uint256"
        },
        {
          "indexed": false,
          "internalType": "uint256",
          "name": "totalRounds",
          "type": "uint256"
        },
        {
          "indexed": false,
          "internalType": "uint256",
          "name": "finalAccuracy",
          "type": "uint256"
        }
      ],
      "name": "ModelInfoSet",
      "type": "event"
    },
    {
      "anonymous": false,
      "inputs": [
        {
          "indexed": true,
          "internalType": "uint256",
          "name": "taskId",
          "type": "uint256"
        },
        {
          "indexed": false,
          "internalType": "address",
          "name": "participant",
          "type": "address"
        },
        {
          "indexed": false,
          "internalType": "uint256",
          "name": "flrTokenAmount",
          "type": "uint256"
        },
        {
          "indexed": false,
          "internalType": "uint256",
          "name": "modelTokenAmount",
          "type": "uint256"
        }
      ],
      "name": "RewardsClaimed",
      "type": "event"
    },
    {
      "anonymous": false,
      "inputs": [
        {
          "indexed": true,
          "internalType": "bytes32",
          "name": "role",
          "type": "bytes32"
        },
        {
          "indexed": true,
          "internalType": "bytes32",
          "name": "previousAdminRole",
          "type": "bytes32"
        },
        {
          "indexed": true,
          "internalType": "bytes32",
          "name": "newAdminRole",
          "type": "bytes32"
        }
      ],
      "name": "RoleAdminChanged",
      "type": "event"
    },
    {
      "anonymous": false,
      "inputs": [
        {
          "indexed": true,
          "internalType": "bytes32",
          "name": "role",
          "type": "bytes32"
        },
        {
          "indexed": true,
          "internalType": "address",
          "name": "account",
          "type": "address"
        },
        {
          "indexed": true,
          "internalType": "address",
          "name": "sender",
          "type": "address"
        }
      ],
      "name": "RoleGranted",
      "type": "event"
    },
    {
      "anonymous": false,
      "inputs": [
        {
          "indexed": true,
          "internalType": "bytes32",
          "name": "role",
          "type": "bytes32"
        },
        {
          "indexed": true,
          "internalType": "address",
          "name": "account",
          "type": "address"
        },
        {
          "indexed": true,
          "internalType": "address",
          "name": "sender",
          "type": "address"
        }
      ],
      "name": "RoleRevoked",
      "type": "event"
    },
    {
      "anonymous": false,
      "inputs": [
        {
          "indexed": true,
          "internalType": "uint256",
          "name": "taskId",
          "type": "uint256"
        },
        {
          "indexed": true,
          "internalType": "uint256",
          "name": "round",
          "type": "uint256"
        },
        {
          "indexed": false,
          "internalType": "address",
          "name": "participant",
          "type": "address"
        },
        {
          "indexed": false,
          "internalType": "uint256",
          "name": "score",
          "type": "uint256"
        }
      ],
      "name": "RoundScoreRecorded",
      "type": "event"
    },
    {
      "anonymous": false,
      "inputs": [
        {
          "indexed": true,
          "internalType": "uint256",
          "name": "taskId",
          "type": "uint256"
        },
        {
          "indexed": false,
          "internalType": "address",
          "name": "participant",
          "type": "address"
        },
        {
          "indexed": false,
          "internalType": "uint256",
          "name": "totalScore",
          "type": "uint256"
        }
      ],
      "name": "TaskScoreFinalized",
      "type": "event"
    },
    {
      "inputs": [],
      "name": "CONTRIBUTOR_ROLE",
      "outputs": [
        {
          "internalType": "bytes32",
          "name": "",
          "type": "bytes32"
        }
      ],
      "stateMutability": "view",
      "type": "function"
    },
    {
      "inputs": [],
      "name": "DEFAULT_ADMIN_ROLE",
      "outputs": [
        {
          "internalType": "bytes32",
          "name": "",
          "type": "bytes32"
        }
      ],
      "stateMutability": "view",
      "type": "function"
    },
    {
      "inputs": [],
      "name": "ORCHESTRATOR_ROLE",
      "outputs": [
        {
          "internalType": "bytes32",
          "name": "",
          "type": "bytes32"
        }
      ],
      "stateMutability": "view",
      "type": "function"
    },
    {
      "inputs": [
        {
          "internalType": "uint256",
          "name": "taskId",
          "type": "uint256"
        },
        {
          "internalType": "address[]",
          "name": "participants",
          "type": "address[]"
        },
        {
          "internalType": "uint256[]",
          "name": "finalScores",
          "type": "uint256[]"
        },
        {
          "internalType": "uint256",
          "name": "flrTokenPool",
          "type": "uint256"
        },
        {
          "internalType": "uint256",
          "name": "modelTokenAmount",
          "type": "uint256"
        }
      ],
      "name": "calculateRewards",
      "outputs": [],
      "stateMutability": "nonpayable",
      "type": "function"
    },
    {
      "inputs": [
        {
          "internalType": "uint256",
          "name": "taskId",
          "type": "uint256"
        }
      ],
      "name": "claimRewards",
      "outputs": [],
      "stateMutability": "nonpayable",
      "type": "function"
    },
    {
      "inputs": [],
      "name": "flrToken",
      "outputs": [
        {
          "internalType": "contract IFLRToken",
          "name": "",
          "type": "address"
        }
      ],
      "stateMutability": "view",
      "type": "function"
    },
    {
      "inputs": [
        {
          "internalType": "uint256",
          "name": "taskId",
          "type": "uint256"
        },
        {
          "internalType": "address",
          "name": "participant",
          "type": "address"
        }
      ],
      "name": "getFinalScore",
      "outputs": [
        {
          "internalType": "uint256",
          "name": "",
          "type": "uint256"
        }
      ],
      "stateMutability": "view",
      "type": "function"
    },
    {
      "inputs": [
        {
          "internalType": "uint256",
          "name": "taskId",
          "type": "uint256"
        }
      ],
      "name": "getModelInfo",
      "outputs": [
        {
          "components": [
            {
              "internalType": "uint256",
              "name": "taskId",
              "type": "uint256"
            },
            {
              "internalType": "uint256",
              "name": "participantCount",
              "type": "uint256"
            },
            {
              "internalType": "uint256",
              "name": "totalRounds",
              "type": "uint256"
            },
            {
              "internalType": "uint256",
              "name": "finalAccuracy",
              "type": "uint256"
            }
          ],
          "internalType": "struct FLRewarder.ModelTokenInfo",
          "name": "",
          "type": "tuple"
        }
      ],
      "stateMutability": "view",
      "type": "function"
    },
    {
      "inputs": [
        {
          "internalType": "bytes32",
          "name": "role",
          "type": "bytes32"
        }
      ],
      "name": "getRoleAdmin",
      "outputs": [
        {
          "internalType": "bytes32",
          "name": "",
          "type": "bytes32"
        }
      ],
      "stateMutability": "view",
      "type": "function"
    },
    {
      "inputs": [
        {
          "internalType": "uint256",
          "name": "taskId",
          "type": "uint256"
        },
        {
          "internalType": "address",
          "name": "participant",
          "type": "address"
        },
        {
          "internalType": "uint256",
          "name": "round",
          "type": "uint256"
        }
      ],
      "name": "getRoundScore",
      "outputs": [
        {
          "internalType": "uint256",
          "name": "",
          "type": "uint256"
        }
      ],
      "stateMutability": "view",
      "type": "function"
    },
    {
      "inputs": [
        {
          "internalType": "bytes32",
          "name": "role",
          "type": "bytes32"
        },
        {
          "internalType": "address",
          "name": "account",
          "type": "address"
        }
      ],
      "name": "grantRole",
      "outputs": [],
      "stateMutability": "nonpayable",
      "type": "function"
    },
    {
      "inputs": [
        {
          "internalType": "bytes32",
          "name": "role",
          "type": "bytes32"
        },
        {
          "internalType": "address",
          "name": "account",
          "type": "address"
        }
      ],
      "name": "hasRole",
      "outputs": [
        {
          "internalType": "bool",
          "name": "",
          "type": "bool"
        }
      ],
      "stateMutability": "view",
      "type": "function"
    },
    {
      "inputs": [],
      "name": "modelAccessToken",
      "outputs": [
        {
          "internalType": "contract IModelAccessToken",
          "name": "",
          "type": "address"
        }
      ],
      "stateMutability": "view",
      "type": "function"
    },
    {
      "inputs": [],
      "name": "orchestrator",
      "outputs": [
        {
          "internalType": "contract IFLorchestrator",
          "name": "",
          "type": "address"
        }
      ],
      "stateMutability": "view",
      "type": "function"
    },
    {
      "inputs": [
        {
          "internalType": "uint256",
          "name": "taskId",
          "type": "uint256"
        },
        {
          "internalType": "uint256",
          "name": "round",
          "type": "uint256"
        },
        {
          "internalType": "address[]",
          "name": "participants",
          "type": "address[]"
        },
        {
          "internalType": "uint256[]",
          "name": "scores",
          "type": "uint256[]"
        }
      ],
      "name": "recordRoundScores",
      "outputs": [],
      "stateMutability": "nonpayable",
      "type": "function"
    },
    {
      "inputs": [
        {
          "internalType": "bytes32",
          "name": "role",
          "type": "bytes32"
        },
        {
          "internalType": "address",
          "name": "callerConfirmation",
          "type": "address"
        }
      ],
      "name": "renounceRole",
      "outputs": [],
      "stateMutability": "nonpayable",
      "type": "function"
    },
    {
      "inputs": [
        {
          "internalType": "bytes32",
          "name": "role",
          "type": "bytes32"
        },
        {
          "internalType": "address",
          "name": "account",
          "type": "address"
        }
      ],
      "name": "revokeRole",
      "outputs": [],
      "stateMutability": "nonpayable",
      "type": "function"
    },
    {
      "inputs": [
        {
          "internalType": "uint256",
          "name": "taskId",
          "type": "uint256"
        },
        {
          "internalType": "uint256",
          "name": "participantCount",
          "type": "uint256"
        },
        {
          "internalType": "uint256",
          "name": "totalRounds",
          "type": "uint256"
        },
        {
          "internalType": "uint256",
          "name": "finalAccuracy",
          "type": "uint256"
        }
      ],
      "name": "setModelInfo",
      "outputs": [],
      "stateMutability": "nonpayable",
      "type": "function"
    },
    {
      "inputs": [
        {
          "internalType": "bytes4",
          "name": "interfaceId",
          "type": "bytes4"
        }
      ],
      "name": "supportsInterface",
      "outputs": [
        {
          "internalType": "bool",
          "name": "",
          "type": "bool"
        }
      ],
      "stateMutability": "view",
      "type": "function"
    },
    {
      "inputs": [
        {
          "internalType": "uint256",
          "name": "",
          "type": "uint256"
        }
      ],
      "name": "taskRewards",
      "outputs": [
        {
          "internalType": "uint256",
          "name": "totalTaskScore",
          "type": "uint256"
        },
        {
          "internalType": "bool",
          "name": "isFinalized",
          "type": "bool"
        },
        {
          "internalType": "uint256",
          "name": "rewardTokenPool",
          "type": "uint256"
        },
        {
          "internalType": "uint256",
          "name": "modelTokenAmount",
          "type": "uint256"
        },
        {
          "components": [
            {
              "internalType": "uint256",
              "name": "taskId",
              "type": "uint256"
            },
            {
              "internalType": "uint256",
              "name": "participantCount",
              "type": "uint256"
            },
            {
              "internalType": "uint256",
              "name": "totalRounds",
              "type": "uint256"
            },
            {
              "internalType": "uint256",
              "name": "finalAccuracy",
              "type": "uint256"
            }
          ],
          "internalType": "struct FLRewarder.ModelTokenInfo",
          "name": "modelInfo",
          "type": "tuple"
        }
      ],
      "stateMutability": "view",
      "type": "function"
    }
  ],
  "bytecode": "0x60e060405234801561001057600080fd5b5060405161186138038061186183398101604081905261002f9161014f565b6001600160a01b0380841660805282811660a052811660c052610053600033610087565b5061007e7fe2889e7308860b3fe8df0daa86fccfea4d71e43776719a57be28cf90b6db81e933610087565b50505050610192565b6000828152602081815260408083206001600160a01b038516845290915281205460ff16610129576000838152602081815260408083206001600160a01b03861684529091529020805460ff191660011790556100e13390565b6001600160a01b0316826001600160a01b0316847f2f8788117e7eff1d82e926ec794901d17c78024a50270940304540a733656f0d60405160405180910390a450600161012d565b5060005b92915050565b80516001600160a01b038116811461014a57600080fd5b919050565b60008060006060848603121561016457600080fd5b61016d84610133565b925061017b60208501610133565b915061018960408501610133565b90509250925092565b60805160a05160c05161167d6101e46000396000818161037b0152818161051c01528181610aba0152610d4d015260008181610265015261084201526000818161034c015261075d015261167d6000f3fe608060405234801561001057600080fd5b506004361061012c5760003560e01c80639285c94b116100ad578063d52ad8ad11610071578063d52ad8ad1461039d578063d547741f146103b0578063eafb79e2146103c3578063efb66ee8146103d8578063ff4b955b146103f857600080fd5b80639285c94b146102b257806396d67db414610334578063985d73db14610347578063a217fddf1461036e578063b74795d91461037657600080fd5b80632f2ff15d116100f45780632f2ff15d146101fd57806336568abe14610210578063696243e514610223578063909632ea1461026057806391d148541461029f57600080fd5b806301ffc9a7146101315780630317a6a3146101595780630962ef791461019e57806309e0a34f146101b3578063248a9ca3146101da575b600080fd5b61014461013f36600461116b565b61040b565b60405190151581526020015b60405180910390f35b6101906101673660046111b8565b60009182526001602081815260408085206001600160a01b039490941685529290529120015490565b604051908152602001610150565b6101b16101ac3660046111e4565b610442565b005b6101907fe098e2e7d2d4d3ca0e3877ceaaf3cdfbd47483f6699688ad12b1d6732deef10b81565b6101906101e83660046111e4565b60009081526020819052604090206001015490565b6101b161020b3660046111b8565b6108fa565b6101b161021e3660046111b8565b610925565b6101906102313660046111fd565b60009283526001602090815260408085206001600160a01b039490941685529281528284209184525290205490565b6102877f000000000000000000000000000000000000000000000000000000000000000081565b6040516001600160a01b039091168152602001610150565b6101446102ad3660046111b8565b61095d565b6103236102c03660046111e4565b600160208181526000928352604092839020918201546002830154600384015460048501548651608081018852600587015481526006870154958101959095526007860154968501969096526008909401546060840152909360ff909116929185565b604051610150959493929190611233565b6101b16103423660046112d5565b610986565b6102877f000000000000000000000000000000000000000000000000000000000000000081565b610190600081565b6102877f000000000000000000000000000000000000000000000000000000000000000081565b6101b16103ab366004611363565b610c28565b6101b16103be3660046111b8565b610ee0565b61019060008051602061162883398151915281565b6103eb6103e63660046111e4565b610f05565b60405161015091906113eb565b6101b1610406366004611416565b610f78565b60006001600160e01b03198216637965db0b60e01b148061043c57506301ffc9a760e01b6001600160e01b03198316145b92915050565b6000818152600160205260409020600281015460ff1661049e5760405162461bcd60e51b815260206004820152601260248201527115185cdac81b9bdd08199a5b985b1a5e995960721b60448201526064015b60405180910390fd5b33600090815260098201602052604090205460ff16156105005760405162461bcd60e51b815260206004820152601760248201527f5265776172647320616c726561647920636c61696d65640000000000000000006044820152606401610495565b60405163758d9b8960e01b8152600481018390523360248201527f00000000000000000000000000000000000000000000000000000000000000006001600160a01b03169063758d9b8990604401602060405180830381865afa15801561056b573d6000803e3d6000fd5b505050506040513d601f19601f8201168201806040525081019061058f9190611448565b6105cf5760405162461bcd60e51b8152602060048201526011602482015270139bdd0818481c185c9d1a58da5c185b9d607a1b6044820152606401610495565b336000908152602082905260409020600281015460ff166106325760405162461bcd60e51b815260206004820152601860248201527f4e6f20636f6e747269627574696f6e207265636f7264656400000000000000006044820152606401610495565b60008260030154116106765760405162461bcd60e51b815260206004820152600d60248201526c139bc8151bdad95b88141bdbdb609a1b6044820152606401610495565b60008160010154116106b65760405162461bcd60e51b81526020600482015260096024820152686e6f205073636f726560b81b6044820152606401610495565b60008260010154116106fb5760405162461bcd60e51b815260206004820152600e60248201526d4e6f20746f74616c2073636f726560901b6044820152606401610495565b60008260010154826001015484600301546107169190611480565b6107209190611497565b33600081815260098601602052604090819020805460ff19166001179055516340c10f1960e01b81526004810191909152602481018290529091507f00000000000000000000000000000000000000000000000000000000000000006001600160a01b0316906340c10f1990604401600060405180830381600087803b1580156107a957600080fd5b505af19250505080156107ba575060015b61080b576107c66114b9565b806308c379a0036107ff57506107da611510565b806107e55750610801565b8060405162461bcd60e51b81526004016104959190611595565b505b3d6000803e3d6000fd5b60048381015460405163731133e960e01b8152339281019290925260248201869052604482015260806064820152600060848201527f00000000000000000000000000000000000000000000000000000000000000006001600160a01b03169063731133e99060a401600060405180830381600087803b15801561088e57600080fd5b505af192505050801561089f575060015b6108ab576107c66114b9565b600483015460408051338152602081018490529081019190915284907fcf409dbfc3ec40ef8f9752f4f34117a5e22dbbffe43e6da17365deae327c44ee9060600160405180910390a250505050565b60008281526020819052604090206001015461091581611024565b61091f8383611031565b50505050565b6001600160a01b038116331461094e5760405163334bd91960e11b815260040160405180910390fd5b61095882826110c3565b505050565b6000918252602082815260408084206001600160a01b0393909316845291905290205460ff1690565b60008051602061162883398151915261099e81611024565b60008881526001602052604090206002015460ff16156109f95760405162461bcd60e51b815260206004820152601660248201527515185cdac8185b1c9958591e48199a5b985b1a5e995960521b6044820152606401610495565b858414610a415760405162461bcd60e51b8152602060048201526016602482015275082e4e4c2f240d8cadccee8d0e640dad2e6dac2e8c6d60531b6044820152606401610495565b6000888152600160205260408120600381018590556004810184905590805b88811015610c045760008a8a83818110610a7c57610a7c6115e3565b9050602002016020810190610a9191906115f9565b60405163758d9b8960e01b8152600481018e90526001600160a01b0380831660248301529192507f00000000000000000000000000000000000000000000000000000000000000009091169063758d9b8990604401602060405180830381865afa158015610b03573d6000803e3d6000fd5b505050506040513d601f19601f82011682018060405250810190610b279190611448565b610b695760405162461bcd60e51b8152602060048201526013602482015272125b9d985b1a59081c185c9d1a58da5c185b9d606a1b6044820152606401610495565b6000898984818110610b7d57610b7d6115e3565b6001600160a01b03851660009081526020898152604090912091029290920135600183018190559250610bb290508286611614565b604080516001600160a01b0386168152602081018590529196508f917ff702ae8ceb93f18145e334d7d43816e0bc770b1c32a91ec57f04a41a7d5494e9910160405180910390a2505050600101610a60565b506001808301919091556002909101805460ff191690911790555050505050505050565b600080516020611628833981519152610c4081611024565b60008781526001602052604090206002015460ff1615610c9b5760405162461bcd60e51b815260206004820152601660248201527515185cdac8185b1c9958591e48199a5b985b1a5e995960521b6044820152606401610495565b838214610ce35760405162461bcd60e51b8152602060048201526016602482015275082e4e4c2f240d8cadccee8d0e640dad2e6dac2e8c6d60531b6044820152606401610495565b6000878152600160205260408120905b85811015610ed5576000878783818110610d0f57610d0f6115e3565b9050602002016020810190610d2491906115f9565b60405163758d9b8960e01b8152600481018c90526001600160a01b0380831660248301529192507f00000000000000000000000000000000000000000000000000000000000000009091169063758d9b8990604401602060405180830381865afa158015610d96573d6000803e3d6000fd5b505050506040513d601f19601f82011682018060405250810190610dba9190611448565b610dfc5760405162461bcd60e51b8152602060048201526013602482015272125b9d985b1a59081c185c9d1a58da5c185b9d606a1b6044820152606401610495565b6000868684818110610e1057610e106115e3565b9050602002013590506000846000016000846001600160a01b03166001600160a01b031681526020019081526020016000209050818160000160008d81526020019081526020016000208190555060018160020160006101000a81548160ff0219169083151502179055508a8c7fc6209be8f62e74f05cace21fcd1d9a786ee11481d8df9db5f23fa16e4ab9465f8585604051610ec29291906001600160a01b03929092168252602082015260400190565b60405180910390a3505050600101610cf3565b505050505050505050565b600082815260208190526040902060010154610efb81611024565b61091f83836110c3565b610f306040518060800160405280600081526020016000815260200160008152602001600081525090565b50600090815260016020908152604091829020825160808101845260058201548152600682015492810192909252600781015492820192909252600890910154606082015290565b600080516020611628833981519152610f9081611024565b600085815260016020908152604091829020825160808101845288815280830188905280840187905260609081018690526005820189905560068201889055600782018790556008820186905583518881529283018790529282018590529187917f122873f3a93f442a62a527be91bc14f2c8e1a8c60283043e101f19198e5d2fb0910160405180910390a2505050505050565b61102e813361112e565b50565b600061103d838361095d565b6110bb576000838152602081815260408083206001600160a01b03861684529091529020805460ff191660011790556110733390565b6001600160a01b0316826001600160a01b0316847f2f8788117e7eff1d82e926ec794901d17c78024a50270940304540a733656f0d60405160405180910390a450600161043c565b50600061043c565b60006110cf838361095d565b156110bb576000838152602081815260408083206001600160a01b0386168085529252808320805460ff1916905551339286917ff6391f5c32d9c69d2a47ea670b442974b53935d1edc7fd64eb21e047a839171b9190a450600161043c565b611138828261095d565b6111675760405163e2517d3f60e01b81526001600160a01b038216600482015260248101839052604401610495565b5050565b60006020828403121561117d57600080fd5b81356001600160e01b03198116811461119557600080fd5b9392505050565b80356001600160a01b03811681146111b357600080fd5b919050565b600080604083850312156111cb57600080fd5b823591506111db6020840161119c565b90509250929050565b6000602082840312156111f657600080fd5b5035919050565b60008060006060848603121561121257600080fd5b833592506112226020850161119c565b929592945050506040919091013590565b85815284151560208201526040810184905260608101839052610100810161127f6080830184805182526020810151602083015260408101516040830152606081015160608301525050565b9695505050505050565b60008083601f84011261129b57600080fd5b50813567ffffffffffffffff8111156112b357600080fd5b6020830191508360208260051b85010111156112ce57600080fd5b9250929050565b600080600080600080600060a0888a0312156112f057600080fd5b87359650602088013567ffffffffffffffff81111561130e57600080fd5b61131a8a828b01611289565b909750955050604088013567ffffffffffffffff81111561133a57600080fd5b6113468a828b01611289565b989b979a5095989597966060870135966080013595509350505050565b6000806000806000806080878903121561137c57600080fd5b8635955060208701359450604087013567ffffffffffffffff8111156113a157600080fd5b6113ad89828a01611289565b909550935050606087013567ffffffffffffffff8111156113cd57600080fd5b6113d989828a01611289565b979a9699509497509295939492505050565b815181526020808301519082015260408083015190820152606080830151908201526080810161043c565b6000806000806080858703121561142c57600080fd5b5050823594602084013594506040840135936060013592509050565b60006020828403121561145a57600080fd5b8151801515811461119557600080fd5b634e487b7160e01b600052601160045260246000fd5b808202811582820484141761043c5761043c61146a565b6000826114b457634e487b7160e01b600052601260045260246000fd5b500490565b600060033d11156114d25760046000803e5060005160e01c5b90565b601f8201601f1916810167ffffffffffffffff8111828210171561150957634e487b7160e01b600052604160045260246000fd5b6040525050565b600060443d101561151e5790565b6040513d600319016004823e80513d602482011167ffffffffffffffff8211171561154857505090565b808201805167ffffffffffffffff811115611564575050505090565b3d840160031901828201602001111561157e575050505090565b61158d602082850101856114d5565b509392505050565b602081526000825180602084015260005b818110156115c357602081860181015160408684010152016115a6565b506000604082850101526040601f19601f83011684010191505092915050565b634e487b7160e01b600052603260045260246000fd5b60006020828403121561160b57600080fd5b6111958261119c565b8082018082111561043c5761043c61146a56fee2889e7308860b3fe8df0daa86fccfea4d71e43776719a57be28cf90b6db81e9a2646970667358221220bc600ba968e82db209a466afde111e978b0e05abcab0e43336d4e275f789357864736f6c634300081b0033",
  "linkReferences": {},
  "deployedLinkReferences": {}
}